1)
root@lamp-ubuntu-s-1vcpu-1gb-tor1-01:~# tcpdump -i eth0
22:54:11.431703 IP 135-23-156-44.cpe.pppoe.ca.60576 > lamp-ubuntu-s-1vcpu-1gb-tor1-01.ssh: Flags [.], ack 20078852, win 1022, length 0
^C
104931 packets captured
104932 packets received by filter
1 packet dropped by kernel
22:54:11.430804: command not found
root@lamp-ubuntu-s-1vcpu-1gb-tor1-01:~# 22:54:11.430956 IP lamp-ubuntu-s-1vcpu-1gb-tor1-01.ssh > 135-23-156-44.cpe.pppoe.ca.60576: Flags [P.], seq 20088940:20089136, ack 11881, win 501, length 196
22:54:11.430956: command not found
root@lamp-ubuntu-s-1vcpu-1gb-tor1-01:~# 22:54:11.431083 IP lamp-ubuntu-s-1vcpu-1gb-tor1-01.ssh > 135-23-156-44.cpe.pppoe.ca.60576: Flags [P.], seq 20089136:20089332, ack 11881, win 501, length 196
22:54:11.431083: command not found
root@lamp-ubuntu-s-1vcpu-1gb-tor1-01:~# 22:54:11.431219 IP lamp-ubuntu-s-1vcpu-1gb-tor1-01.ssh > 135-23-156-44.cpe.pppoe.ca.60576: Flags [P.], seq 20089332:20089528, ack 11881, win 501, length 196
22:54:11.431219: command not found
root@lamp-ubuntu-s-1vcpu-1gb-tor1-01:~# 22:54:11.431344 IP lamp-ubuntu-s-1vcpu-1gb-tor1-01.ssh > 135-23-156-44.cpe.pppoe.ca.60576: Flags [P.], seq 20089528:20089724, ack 11881, win 501, length 196
22:54:11.431344: command not found
root@lamp-ubuntu-s-1vcpu-1gb-tor1-01:~# 22:54:11.431477 IP lamp-ubuntu-s-1vcpu-1gb-tor1-01.ssh > 135-23-156-44.cpe.pppoe.ca.60576: Flags [P.], seq 20089724:20089920, ack 11881, win 501, length 196


2)
root@lamp-ubuntu-s-1vcpu-1gb-tor1-01:~# tcpdump -c 5 -i eth0
tcpdump: verbose output suppressed, use -v or -vv for full protocol decode
listening on eth0, link-type EN10MB (Ethernet), capture size 262144 bytes
22:57:40.666168 IP lamp-ubuntu-s-1vcpu-1gb-tor1-01.ssh > 135-23-156-44.cpe.pppoe.ca.63022: Flags [P.], seq 3658183351:3658183459, ack 1945558669, win 501, length 108
22:57:40.666386 IP lamp-ubuntu-s-1vcpu-1gb-tor1-01.ssh > 135-23-156-44.cpe.pppoe.ca.63022: Flags [P.], seq 108:144, ack 1, win 501, length 36
22:57:40.666559 IP lamp-ubuntu-s-1vcpu-1gb-tor1-01.ssh > 135-23-156-44.cpe.pppoe.ca.63022: Flags [P.], seq 144:252, ack 1, win 501, length 108
22:57:40.666687 IP lamp-ubuntu-s-1vcpu-1gb-tor1-01.ssh > 135-23-156-44.cpe.pppoe.ca.63022: Flags [P.], seq 252:288, ack 1, win 501, length 36
22:57:40.668496 IP lamp-ubuntu-s-1vcpu-1gb-tor1-01.36708 > 67.207.67.3.domain: 22028+ [1au] PTR? 44.156.23.135.in-addr.arpa. (55)
5 packets captured
40 packets received by filter
4 packets dropped by kernel


3)
root@lamp-ubuntu-s-1vcpu-1gb-tor1-01:~# tcpdump -A -i eth0
22:58:08.521109 IP lamp-ubuntu-s-1vcpu-1gb-tor1-01.ssh > 135-23-156-44.cpe.pppoe.ca.63022: Flags [P.], seq 6110208:6110716, ack 3529, win 501, length 508
E..$.)@.@..#...|...,.....h..s...P...O....t...WB]...h+.&"....qm.x.H..SyuI.c..?.r....%.!
.z*.(...Ozi...;..J...aK.a..?A~.....5.!. ..L..j..-i._.LI3}..l..J.......U.j....<.....:./[k        ..fj.>U.*.H3.XT.)+.C%]....3.}.0./.>.......s.5.G...      ~."...=.....~.[..z..."......7i....a."f_\...D.z.4........to.....WU`Z.);....~.,..q...S.oKe.@iZ....V..;...NP.m........91..v...lN..L..........%..`....%.|. A.gq.[W..?.
D0.=....N.,..]uF..l.(8i ........}..x...i.1....1\.Tt<UsWe.@K?n.n>".kfB.....Gr..B..$..Y.:.%...TI.3:....cp....8......(BN......pr.S.)S...4.....$$jf.Q;.R0....W....
22:58:08.521180 IP lamp-ubuntu-s-1vcpu-1gb-tor1-01.ssh > 135-23-156-44.cpe.pppoe.ca.63022: Flags [P.], seq 6110716:6110864, ack 3529, win 501, length 148
E....*@.@......|...,.....h..s...P...N%....#..b!^f....k%.j.../?>|b.x..I...Ug.?5O5x..Y.t.M$|....Zp..R..pY.!...6.....K..aeX.7C..9..*!...:...A.........g0.c.z3.T.~....>xw...e...a..Yx........F_.
22:58:08.521438 IP lamp-ubuntu-s-1vcpu-1gb-tor1-01.ssh > 135-23-156-44.cpe.pppoe.ca.63022: Flags [P.], seq 6111220:6111504, ack 3529, win 501, length 284
E..D.,@.@......|...,.....h..s...P...N...d..].u.%....1.o.N..c......]w...)....[..$f..!.g...3m+.8*l.V1...'.....Vx..q+A.m.r..%
......|\.+e....z`!x.cf%;y*.g..|##. ......{\.NB...{...IR......+U..W.....If..S^.....DC.o...
...0n...[......&.J\.<...}&......!.@.....;.W.h..%./..G...h.....z.....d..../m.!.O..^.....h.PP.>G.l..|.0..
.s...<E
22:58:08.521726 IP lamp-ubuntu-s-1vcpu-1gb-tor1-01.ssh > 135-23-156-44.cpe.pppoe.ca.63022: Flags [P.], seq 6111796:6112072, ack 3529, win 501, length 276
E..<..@.@......|...,.....h..s...P...N.....D...T^.G.R.....J.<..U..'FD1&k.w8UM...K.7.:..Db../.{._a..........|......4..f....s.1. ...2@xk....O.*[..SK....d.._k...a.=V...)...D.|...t|..-,...)..pw..5N.=u;...e.@....5L.../_.  L.L.5."...fa.....CZ...R.^.b..A...."-..V;.).....qY..Q.\  .W...Y.8..o.    x..Cd...o*.....x.dM.K...zy..6B<m.
22:58:08.521845 IP lamp-ubuntu-s-1vcpu-1gb-tor1-01.ssh > 135-23-156-44.cpe.pppoe.ca.63022: Flags [P.], seq 6112072:6112892, ack 3529, win 501, length 820
E..\./@.@......|...,.....h..s...P...P.....Q.Z%.F..z.G.  .s....(L...1.`...<..h./.3.._.........!N....r...........B.....P.....U.QY....-...."...T..... .p......&e.8tY3.*.v.U@v`.LVu.......
.e).i?..(g.....V..f
...L>.N.;...=..o}...t.d..Tq............>(..2..>`.r#^...<.w..Mt@....e..8...l.v.....u..%6M5....s.....D.!..W.K9........|.....} .uz:.       ..Y"........{I=E..Vu.....g..+{..y.....f......'..L..x.&..6.g
*0../^...x.F...,.&.pg8.^\.4.....h..#D.O.a.EM.]...c#P."N.....!.k..C.     @.      T.... ...^....;.......:.S_0Z.Nc....}dh..UJ.SN.... ...J#...P>..&.h.k..+cy...<!..`...D...&~....<............4Z...5n...|...~11d%.u.&.....rh.."@...B.1c...o.z...2d...td.4Z..[.R...?......#.z(..F../...&.Qh~..NR..g2..i...V...k....x.....a.|g.........UC..l.Mj}l!.t.&...&....B.f..9..),yz.}....vU+...Z)...S....q
......."=......&...{z..G..
.!.b.^.gK.r..!.<..c}..I........Y.e~.h....t@.nR...e.....`*.Cu....x)b.U/
22:58:08.522128 IP lamp-ubuntu-s-1vcpu-1gb-tor1-01.ssh > 135-23-156-44.cpe.pppoe.ca.63022: Flags [P.], seq 6113032:6113756, ack 3529, win 501, length 724
E....1@.@..C...|...,.....h..s...P...Pe...2.F.6i.U:.IW.acj...-.Q.;.R...P...y..XE.^&G7.T^6p/.{..X...........~@..%.3.....j.<p.`3|S. ... ....-..&.HV..3N.X'...2.I..|B]..I.}.....0E....QHQE....=.,..s...`w.h.2.O.{X.JG}T.bDs+...?.v.B^_.[.....U...[.ms2:...zy.h....D...#...9`....y...V..a.:[...9f|xli`..$.7..w...aB.R?f..x......<L.qiX}.;.6(N......;b.h.0.2%....../{.Kue.j.c......6.g#ResY|...}.....k~..J8   fMd..:.r.}%?:'q.|..u..+..........%.O..M/....).
..k....u.....AJ............6....u...P"v.............../.        qfU.....X..r~<.8..L.t\....2y.9..c.'.u....s..H..s+..EITUf..      ..      ......`........PV..}g...a...w.ul..'...1.......|.:....2....R.....F.2....)l       ./........~m5.l...S..'.|.WN..(.+.7a.A.Unx."]...u...Z.`n.......te....kh../'e.....&....[._...........N.ka\..._`........z...EC;.)v~.....8
22:58:08.522277 IP lamp-ubuntu-s-1vcpu-1gb-tor1-01.ssh > 135-23-156-44.cpe.pppoe.ca.63022: Flags [P.], seq 6113756:6114152, ack 3529, win 501, length 396
E....2@.@......|...,.....h.{s...P...O...iQT....>...M....>..pm..{......x...,,zd."...Z..B.~.....=3.*........b.uW.."..y;g.^v...0^....
2...+...Z........y.0..94...F9j..=.i$..2J<uX...D>,....u05....^V...~..&.h.!.n....[...Tl.yE%.2.)....o..#r.|............D.H.....%1... jx........Z......l..2.`.....{..8....$7....*.1Oa.a]X]......1#7......./....KG....O..iD0m..#..^...~...V@Y...Z-.6.0Q.............C..F..@I;.....8...v1F.m7|.C5..lA$..T.<}.....B.N...
22:58:08.522541 IP lamp-ubuntu-s-1vcpu-1gb-tor1-01.ssh > 135-23-156-44.cpe.pppoe.ca.63022: Flags [P.], seq 6114772:6115192, ack 3529, win 501, length 420
E....4@.@..p...|...,.....h.ss...P...O5.....:{.r.`.{8..\gY.....P......zx.8..]......g..T.`s...8...2......r.M+..i.OS.J....p....p..\._/.......eqs/.O.K...b\..L9..#
V..T*!.<C....?........O.&......(..A....#I..Y-UJ.$..\..U/1.Wo,L.{5.v...[..o.`b....O..}....}...... .}....G9..p?..(..9,.pL.-l.0..`....Y.....#/..X.^.Qubf.h.tK[0E4..0JmK[b.o.x...R.K.>(|NN....QJw...!.z.T.....U.7...Br.]..L|....'...DM.,...e..3W.....o....n......Xj.....C...7..?....$.|.ud.]U#..T...q......v...N.
22:58:08.522757 IP lamp-ubuntu-s-1vcpu-1gb-tor1-01.ssh > 135-23-156-44.cpe.pppoe.ca.63022: Flags [P.], seq 6115516:6115992, ack 3529, win 501, length 476
E....6@.@..6...|...,.....h.[s...P...Om..W..h".p.@......Wl..$D...........$.A:.=....\....Z..-.2:\@T..^....rB.Ms.f].7...ta.P..#....
...Y..W.*.&+hp$..Pk...p.......?:{L..9...m0.V..p..=..L..N*.8.....#Uk..c....".......L..q... .G.1`.../F..H.......%j.W.UE=?....g W.mA&...?h....+L....b'.p.ek.N..-..:.W....{MN.oR.>."..U~!.9:R...[..R.!.}.O.:.x>...~.|U56....Fy3.X.8...Y$....9..NM..%:...3.........,.......K.....]...FqI@.....Q.Q.W$.$o.N........\p.V..u.t....R..;."a.....'............M.t...}.X..f.....<.|.o.&.{.0...c..Y<.f....B..a..9
22:58:08.522940 IP 135-23-156-44.cpe.pppoe.ca.63022 > lamp-ubuntu-s-1vcpu-1gb-tor1-01.ssh: Flags [.], ack 6098872, win 1026, length 0
E..(%.@.9......,...|....s....h.WP.............
22:58:08.523289 IP lamp-ubuntu-s-1vcpu-1gb-tor1-01.ssh > 135-23-156-44.cpe.pppoe.ca.63022: Flags [P.], seq 6117124:6117528, ack 3529, win 501, length 404
E....:@.@..z...|...,.....h..s...P...O%....D.....|.o..S........'.q(.n.|......Hb....^.....og'.LX.=......p......ry...+.An`.T.........5}(...Or.b.4^...o..:?.......%;..*)..`.Y.........]....T3.....U..S.`e.C2..+..l...3'.q..!..%(..3\w.......iE^E..~..Q.x*...a!.....u.3.R..i....e.9...5......W..../..X.`...{t>......OG.K*.....'..T..'e....Q;].8Q.;3.`..B..,<.        lIr......C.0...I...Y......]...N-_..b.8W...j.......Z*<..|..V..#.n..Q.z.u.}.&..]..`$..oO....m..T....<
22:58:08.523420 IP lamp-ubuntu-s-1vcpu-1gb-tor1-01.ssh > 135-23-156-44.cpe.pppoe.ca.63022: Flags [P.], seq 6117528:6118268, ack 3529, win 501, length 740
E....;@.@..)...|...,.....h.7s...P...Pu..E       .w........K.l..3J3.M...|..`......<..d.......Y..*....!....@>.Sk..f..b...d`U.}u6DE/ik..\.....B
W..&.5.u\{..*f&n.!.e..O.p.W.0........K.......0.........`.i..@..*/B...m.....)..x`...m..S7.3.[..*....fv|..F#...........O..#gz...k.u.....y..\Z^.."...`.(.[.._.d..^.a..0OM.%5.67..bu......!O.M.........=xz.q.4?..l.i.-e....Z....'|s1%..f.".7..n..A.9.%t..........>.\75l..U.a..      X...P).....6.'...z.....;L..Rz.;C.(.@}%j.2vX;.....'....g.w...?..-k+...1.....'......r.{.."....&......G.4ks..A .=.V............_ .........D..     .0Hi...Z.m.).A.8.m.,k.M.v.K.......[Bp.E.;.:_....w.....-..../..<....l,PN..z".$.,..w".....hk.E]..A..b.}Q.....DE.E.x.X.2.....K.`L.....s......0..y...H>...l.<....3.....yI'<.s....{n.Vm.<jVb.mU.i..V.%....7..3r.s....=gb.?_n..;...d............&.:.,
22:58:08.523615 IP lamp-ubuntu-s-1vcpu-1gb-tor1-01.ssh > 135-23-156-44.cpe.pppoe.ca.63022: Flags [P.], seq 6118416:6118796, ack 3529, win 501, length 380
E....=@.@......|...,.....h..s...P...O......o..=..iM..gH..[.9].FD.7.F..J.4I)......9.........M.$..E.....N......._..:..k..ob.@.j.UD4C.D....^......_.....S......k...P..j....Z...%.3....i....{...#....0..2...i..L=`........E.O'..o.|p..H&....T...7.<..-.C.<h}.XGb..........3....@t.r:....e...[.....s.5...&..y..<e...9NL...U%]._.oc.# .y.:...w...c.........zo1.cU4.j..W1.\l..{P........cT*k4......1...>.62.uY.2:..?..].....K...^..2.".....
22:58:08.524078 IP lamp-ubuntu-s-1vcpu-1gb-tor1-01.ssh > 135-23-156-44.cpe.pppoe.ca.63022: Flags [P.], seq 6119632:6120212, ack 3529, win 501, length 580
E..l.A@.@......|...,.....h.os...P...O...y...d.......yo1....&.A..3!.[.   .."6uP.^....!..g
gS..vog.b...y.j.B.b#.,4....!..s}.........s/3%.".|2.....P.2v!.E........l...._.<t.4><...R
l/....,...@,..#.K.K........0u....XL.....o.DL./V 7.......40.....m\.C.D..f.Qu...U...a)..E.DF.cQ..Kf.,.*GZ....^i....d..P.*m..i...76t..Q_Z.z.h..y..IB.a~fr3..mC..+....4...O..P.n.........(..?...s..PTbmy7.OF|"..w.N......*...".v.Jp7.5a`...5r...N5e..O^...Yu]...;..YA3_...Q..d.p..."..MKm.....h....w....M..NC.....`.(...p....`..].~....Y..^r......0.....`C........u^Z.r%y.y..k.[p...        $.....nd.5+....1...........=s..WJb@.bTZ.........fed.#...Z..<[.pe..'...-..y.!
22:58:08.524172 IP lamp-ubuntu-s-1vcpu-1gb-tor1-01.ssh > 135-23-156-44.cpe.pppoe.ca.63022: Flags [P.], seq 6120212:6120456, ack 3529, win 501, length 244
E....B@.@......|...,.....h..s...P...N...^r.)^......... .`"R.~U.@.^.^h.QeDH.c<.x..'..*.....M..#-J....c.....0.7........x;......z...g..z.M:Od...?.S.R.......G.nmM...Q..s.~....".5.bz.c.!u..|C.|zn..\...R95&Lq....f.p. .....W..u.-gk]...cM.G...&HW..X..}.A.>b.Q..i..c...
W.3.Y.9,....6.~........
22:58:08.524477 IP lamp-ubuntu-s-1vcpu-1gb-tor1-01.ssh > 135-23-156-44.cpe.pppoe.ca.63022: Flags [P.], seq 6121168:6121556, ack 3529, win 501, length 388
E....E@.@......|...,.....h.os...P...O....EU.FY.-...t..I.....O.D...      .t.!2.} f...Q.U..!Oa..}...L.3Q._$.0.[.."ym.....
...\.k7....Q......"..\...{..A.....:..........?  ..F...b...U.o.=q.s..CT.G].d#-YY9.PoEKa..xKo....|.....S$.....7.q.+E..p.@..{<d..(...:nh......!.........T.jW..".......$..M.......U...B.. ...;p..[.....~3.K..^.oX....vm..i...Yl.N....V1^..:....T.jI.cO.6.p..YJ......wn3.,:...GR8`....hy.P.s.j)..3#...m..o@........M._..^...5H.
22:58:08.524576 IP 135-23-156-44.cpe.pppoe.ca.63022 > lamp-ubuntu-s-1vcpu-1gb-tor1-01.ssh: Flags [P.], seq 3529:3565, ack 6099556, win 1023, length 36
E..L%.@.9..k...,...|....s....h..P...D.......P.~G......B".p.<.....:},.....g..
22:58:08.524928 IP lamp-ubuntu-s-1vcpu-1gb-tor1-01.ssh > 135-23-156-44.cpe.pppoe.ca.63022: Flags [P.], seq 6121960:6123100, ack 3565, win 501, length 1140
E....G@.@......|...,.....h..s...P...R........Pg.u...K.&..X..;}..w....T.a......~..ck._.m....O3..d...h."....b1..k.....$| '[......H..v..m.-....s..1....].t.. ..V.c3(v...C3....!d......m:(......2   IJV...~2..%3WR.jv&.....(..j..3.\........0.|.`)j.....1..!..Y.9..h.....&.....,5.5.<..r.~N`.../.S...3.V
:8..93?...i...}..O.....TzI......9....U!..G.D.1.kA.EA....Ov..:.....L#^>.3ya...............~6.:LF.H.      ....fh.F........>G<.......P.I..qFt......SW(.....K...,...<..g.....s..g.I....E~b\io.?
c.L..w....E..GT...F..m.E.;..".......!..]....|E..M.Uj..5.bv...M.e(.................K.df4J..>.....>)...d...(..@..(..uT.-LZ.J........6.~...2.YRJ.6t.g.\.\.x..}.jq..0Z..........T   ZI{...lFI..!.6u...9.......t+.[`....%.b"..3.TXo.)Y....}.rE.............:........^Q.~oI.L..p.I.Bn..........1.{h.]..D.t.............1L.j...Y....C..pV).-C9.
.-.6..Y..$U.....#..b. .Xf.6...P....tZS\...t...........&{I.'..8..v.^.xW@=t..|..Y`a....R jr..wL....Q^.n.A....=@K.t-.Y..{;.....K...E.dc.....S..(...bGU..S..
T].t)I.v...A.$.......
.I...#..l~M..F...f..=.s..m5\.;..........J..c.^....4....q....U..|...j...9......].....w..2..4t/a...B...ZHX.JC.F..?..|U68....3...h..1.....DZ.<%0...B}p.RGo..u.."..Z........*..H...>.:^.!..@..[...Y.]..e.W.....U
22:58:08.525139 IP lamp-ubuntu-s-1vcpu-1gb-tor1-01.ssh > 135-23-156-44.cpe.pppoe.ca.63022: Flags [P.], seq 6123440:6123708, ack 3565, win 501, length 268
E..4.I@.@......|...,.....h.Os...P...N....=.8P.<F.E..=.J....._FpP.`......>..-bVf_a..K.s.}d..LZ.  ...:.U....6...'{.bI....(.g.W.s..._4+r^HbKrl!s..fcf....zN.L......(+../A..-'..dH.........g C.v..P.d] .2+3.dS&..j.`.?...._d.-..3..{.h..(.......wLu.k..oVl.P....N.].C?.HD.Y..y.....c.....n...L....R...x..#-:....8..%.N..u
22:58:08.525463 IP lamp-ubuntu-s-1vcpu-1gb-tor1-01.ssh > 135-23-156-44.cpe.pppoe.ca.63022: Flags [P.], seq 6123952:6124460, ack 3565, win 501, length 508
E..$.K@.@......|...,.....h.Os...P...O....;....E.......]Bc....WW.i....3..............)>D.MyXT.....B.{L.:%f./.._YK..........;!....'..r.t..0.}kOS.........%!]9%z./.eT.aF...a.p..IU...;.....Tj,...>?..As.+......|.I...r...i..o.h.'h....Oq..9a.:...0;..:.x..Z..W... .9t=.........38b.8..^...KA.H..8.(.*...l....Z.&..w...........     .Y2.....w.Dvro.....|.......Q.!..o........_.........S.....G4.M..>....K...^......q...}.*.Y(+].=pe...H...?{...z...h.....!..Z..>..k....2F.M3...]..;.fc8..Ex8.
>.....q..(.......Q......s.....-Z.X/.w.."..(}.A3Rg.A.....H...~'`.......bi.....B
22:58:08.525961 IP lamp-ubuntu-s-1vcpu-1gb-tor1-01.ssh > 135-23-156-44.cpe.pppoe.ca.63022: Flags [P.], seq 6125304:6125844, ack 3565, win 501, length 540
E..D.O@.@......|...,.....h..s...P...O....*UPwH......$..h........Io.H.@..^...L   .......Qc....#.*!`....F....:....2......m.......}+..!...9...._rv3.....r.V.......#.....?..`f....W..A.._...[........C.U...b......T6...6#..=.........."..?..        ;.....t.8S...r...#..;.....e..^.K...0.Q/.H*.>w.....%8...B..!.......q......&.7..z.YE>x3!...i~.mA[.....F......d..[.l.cpt..3...%.&  `..B.$**....X.....kA.L.E...L.LtF.W......o[...%.^.....7....~..<}Ut~....\s.^P....s..
.0.2e.^uE.....o.%^b.....ng...YG..5.^..).T....j^^."...,...u|.\...E7....'.={z.|.I.&...!.E.B.9Q..0_        .....n.}p%..{<.S....pv..8P.`aVr..wNE.Y.U:.
22:58:08.526080 IP lamp-ubuntu-s-1vcpu-1gb-tor1-01.ssh > 135-23-156-44.cpe.pppoe.ca.63022: Flags [P.], seq 6125844:6126480, ack 3565, win 501, length 636
E....P@.@..|...|...,.....h..s...P...P...........Ad..M...F....}X..0v.....=..%....v;...%.........k...\......).il7.&. .....U.p<..J=]._.V..\L..3..gz..F......gs....
i.B....(.Z.....5.H.Cm..I...'@.].U........l...~5.5......5fn707A7H#.....jM.k..a.'J.N.UT..c....@._.^.k..C.......0.....v..8........9.sR....MFA].f.-.^.6.
....wGdf.6....u.|....0..lY....dFuI.z.V....F"~%a?.|iD...'....|`...l...+.B......5=X.....K[.|..'......b...Y1.\...y.e.L..W.......XB,..Q.'.]p.....A........`..-Vi.GzmE.....h
.!...(Gg...
.(.]n.QJ.......ngj..Q....p9..2.afD.F+".......N}..!.7.<s...F.z,.q.7P<...rF....~.s.g...O..X.D..^"k"9Q.!..^@R..d.dY.9w...|[Y......n....;.hz+W?.+..;.`.Y<~h......7k5#..x...G........7.p`......l
22:58:08.526284 IP 135-23-156-44.cpe.pppoe.ca.63022 > lamp-ubuntu-s-1vcpu-1gb-tor1-01.ssh: Flags [.], ack 6111220, win 1026, length 0
E..(%.@.9......,...|....s....h..P...t.........
22:58:08.526554 IP lamp-ubuntu-s-1vcpu-1gb-tor1-01.ssh > 135-23-156-44.cpe.pppoe.ca.63022: Flags [P.], seq 6127588:6128024, ack 3565, win 501, length 436
E....T@.@..@...|...,.....h..s...P...OE..M.....5[.UTZD.}.$U.\.'x...i.2.....WGQd..e.8C..'...jPu.C...#O..1.{e........O}!.i.lG.. (b.v..G.FH...q..s....{......(eO.jq....Ha.....&.<..lSc....t..ZuBk
(..cp...`}.|....d.5.{.c#..H....../y......':.....'M!..<.@........c1.X.s...R....>..,..~&..s.....L......Zu7.R"5e....#;G...N. ..."d-.......>....@Y.$.......(q&..L...].G_...6C.......B.rj.G.L.rrU..g.P.(H{6O.W.jr..A.....wXP.A.......M.!..I..g.C.F..o.dv........Z....8......>.4.....u.?...x...b..T.
22:58:08.526764 IP lamp-ubuntu-s-1vcpu-1gb-tor1-01.ssh > 135-23-156-44.cpe.pppoe.ca.63022: Flags [P.], seq 6128316:6128640, ack 3565, win 501, length 324
E..l.V@.@......|...,.....h.[s...P...N....\.?.gH%
$.)~.j.....R...
.m...m...&....y..j.s.....&..P.3.U.q.7q..R.s.>.O0:..Y}.{...MEY.....%...<.<YMAF..B....o..F...>3.}....SN...$1.W..G.....#.=.9.D.E...!..`...Lu..t..K....6..Y........ ~.      ..      'YQFR5....k...=s0....W.+.|@Z]d.#.,.....C.L...eJ;.....X...h...U...Z.;.   ~.fy.....a~.;,Z.dr..N...5....QSn..l;.j....:.R.ez......:=..{..Al
22:58:08.527022 IP lamp-ubuntu-s-1vcpu-1gb-tor1-01.ssh > 135-23-156-44.cpe.pppoe.ca.63022: Flags [P.], seq 6129212:6129608, ack 3565, win 501, length 396
E....X@.@..d...|...,.....h..s...P...O.....=+....^..........w......h.#P.......w....y.Z./3...C'..W..z~....l:..X...jC....2.D.>n.:......3.....      ......M.N..*LC.%".....p
 ...>..r..........Qh.,u.....j..4.J.*.......6.....O.Flk..P~....Y,=xk.F.......{A-<..........D.....b.i....>.........x.U...][5\q......z):3.vs...)....).....R...mt   L.....5.J.qf%p.8)."e..O;...f=...L7].a;..$.P3c.<ZF......K....=....B.......e..F\....U..f..e[:...o.....5+5&.....vU.DH.
22:58:08.527126 IP 135-23-156-44.cpe.pppoe.ca.63022 > lamp-ubuntu-s-1vcpu-1gb-tor1-01.ssh: Flags [.], ack 6113756, win 1023, length 0
E..(%.@.9......,...|....s....h.{P...jI........
22:58:08.527300 IP lamp-ubuntu-s-1vcpu-1gb-tor1-01.ssh > 135-23-156-44.cpe.pppoe.ca.63022: Flags [P.], seq 6129916:6130528, ack 3565, win 501, length 612
E....Z@.@......|...,.....i..s...P...O.... n......c9..(6i..m.n..iK.at....e........4 r.s.DGX)....U.....#<]...R+j.|..f[.z.
..?....{..<......,.r
_..Kw..8..2....... WX.|..Q..,Sf1.D+...,_lU.|....>B.....J...L...*...~....R.E........J....}r[...I....x..9X..U.f.P%......S8K.x:F.. .....Q^.?%z-|...>.D.#f?....L|.O...E<.g.}.....v"B.D.4.m.V...........j..#..............!..."..K.Jv(..4."...do.h..*.`.]..N.@.2..K...<w"M....=.l.._4.5g.3Ho....&t..A./..xoWg.i.......|!.......,...!|..v....`.....[~e]..Gi>..|>...S.1n..,`.Y.Q.{Gh..c.u ....W..&...XTS~.$z.x..)......Y.A.^..\.... 'w..r~.......[1.}.3..Q...k...p..N)2.a.O........CX......S.%.c(J.8.@..n$e..
........n7....&zJ>..{.`.
22:58:08.527763 IP lamp-ubuntu-s-1vcpu-1gb-tor1-01.ssh > 135-23-156-44.cpe.pppoe.ca.63022: Flags [P.], seq 6131252:6131800, ack 3565, win 501, length 548
E..L.^@.@......|...,.....i..s...P...O.....N{...E/...:h..?{B;?~....i&....N_P,.:...A....  ..E.3.7Do\H.c@...b..S..Oe...y..J.F.w]...![_tgQ.`6w.y...$N       ._-..:.."^ w.^.&.mmG...r.$.u..b.E8&.&I...F.)0.6...i..b.>....*.r.^|X....P............Q1.1..T.[y<..(|......j./#.....%....C..o."..WF....0t.27.....{ALL@.S...|&...c...K.(;.o.4...=q.M.d..t...m.F...:.....M....3[?......Wae.Y.......H....rHc'.k. ...;.......k....M.U.-D.JN_z.mV.{,.,-..(..   ..m......?e..z8........q.2.?.mL^...hX.......\.8<..j|.....<i.j...q....e.0.L....H.|Tl....2.......e....]".......k..2q<<R].G..&.].-?.i..Y..+ .....S.2t........y...|.e....
22:58:08.528033 IP lamp-ubuntu-s-1vcpu-1gb-tor1-01.ssh > 135-23-156-44.cpe.pppoe.ca.63022: Flags [P.], seq 6132204:6132552, ack 3565, win 501, length 348
E....`@.@......|...,.....i
.s...P...N......+Ds@....Z.%..j!..S...$c...5=PWq..$.5.A......t...i....!..J.km.P$.a.O.5,....?...0&..|..t..:...NZ..Ww..M........$B...E.t!a..k.<cg.).i.P.....$.h@.. .7?. '... ..6...G..O.X.BY......u..+..?.N.|...m..i..k.....[-[3
....a,..<D..#~
cx).6.= .6'..+?.........2j55#@.6.6F..........P..{g..b.i.6.L.ky.<.B."..Qyo$W.#..U.:.....;..m..P.W.....s.H....M...j...`....4U.
22:58:08.528273 IP lamp-ubuntu-s-1vcpu-1gb-tor1-01.ssh > 135-23-156-44.cpe.pppoe.ca.63022: Flags [P.], seq 6132588:6133408, ack 3565, win 501, length 820
E..\.b@.@......|...,.....i..s...P...P....=0....].|.....R....x:.E.H..[.......a...l..s.BK{..."q.".\Uz3...../.N.9..$...E.G2..TxG'.....F...T.?Y.va...J      ?B.........*.....U.TL.......4jO.!.ql*..Wg.%b.c'. ..T.Jqf&.g.]^\....V........Rb.$n8._..Y.h..........m.h`Um^....]ZUw..f.{....OI.R82.t:V........5..#PGHW..>..%mz..|Shv.3.*vi....uZ...Y.....kx..RA.F..w........>...,F..}.....)A.|bA....x.i....I.x(.#.......'.:...>i..K.........du5.......a.........I.Y......%j...5.....r.d.atpbWbf../:. P.l1...........3$x)...}A.l1...Yr*~q...#..~<G...nst.g.....)~..[..5y...H...x..j.<(.;  ....y.N...
.....j;..1...w..XK......!p.q.......*.......WN..+@S.q..D..FA...G.](i...R....................4.%...E(...6..+Uo....Y../..p..O..u..Iy$].Y..$.SDH....g..{....D.....:f..!uJ....`..H...u`C....
.f.q....g..H.S..f..U..w^.N..2..C.DhC.7N.&......#~n.{.'.v..s.......r.:.-[O...    ...a....-.bNd'...L.....(w......"..
22:58:08.528514 IP lamp-ubuntu-s-1vcpu-1gb-tor1-01.ssh > 135-23-156-44.cpe.pppoe.ca.63022: Flags [P.], seq 6134172:6134608, ack 3565, win 501, length 436
E....d@.@..0...|...,.....i.;s...P...OE...h.|.<-0.....'.%d..".#.....Z...v......4..cZb..'a......W........9.......s..b...SW.a#s)..?        ..b...-...+...4q.V....#....U.D.....~..v..r...............P7..K.|....2..s.Z'S**^....Y.d..8&..E&.j...^q;.o.Hz.4{0...[..-.L.L.......y69~...../**Y.C.2*..2...TA.....{...w1rY.Q..S..]j.Z.v91..%........N.......u..P.9.....U;..K.b=..m& 6H....._.|...-...v....K.X|..k..~.........4n...x..D..=......x.........PL.....sz.....1......t..rt."....`..A.....$.6.;..j4[.
22:58:08.528886 IP lamp-ubuntu-s-1vcpu-1gb-tor1-01.ssh > 135-23-156-44.cpe.pppoe.ca.63022: Flags [P.], seq 6135232:6135612, ack 3565, win 501, length 380
E....g@.@..e...|...,.....i._s...P...O...:.I...N+.7x..........0M.Brq     .c.7rD.ih.?..P...=X..=.+........n.........U....[.}.P.ts...5.....[...^ )'..v..!..B.+.....]q
.`...rb ewH....._....hp.X/.E(:.%d...{..e...oo\.tK.\7k.JHd"..?3..pab.1-..L..}..E..vl(....L.>.,...M..Q..C...B.3.#....u...s]..A..ke.wG4i......SB..%.~.x...SU..........3g:!\s.....>wX....

m>........Z.....?..#.....I4     ....1.#c............^..|.sE...JN.;..4..!.....23...
22:58:08.528978 IP lamp-ubuntu-s-1vcpu-1gb-tor1-01.ssh > 135-23-156-44.cpe.pppoe.ca.63022: Flags [P.], seq 6135612:6135808, ack 3565, win 501, length 196
E....h@.@......|...,.....i..s...P...NU.../...... w..... ...By........(-A....<k...._..I.Uu...Y..#..      ."B...8...bTH4.B...S....".....(x.J"..B...
&pE..............C`..?M..e_.Y..oU......+.N.....b.G..YY6:r..ZdAAT..J.....w1.YG......1fK..ti.[7.T
22:58:08.529216 IP lamp-ubuntu-s-1vcpu-1gb-tor1-01.ssh > 135-23-156-44.cpe.pppoe.ca.63022: Flags [P.], seq 6136060:6136584, ack 3565, win 501, length 524
E..4.j@.@......|...,.....i..s...P...O.....'.%W.*.D^/nr....W9......-./..J....G.2...B.~9...R'_/....z.......V......_....S.|...J...G........./..4....y.<P.....'.4.n......6..r....._.        ....D.sYn.c.d...............z2L..^.......OY.3...R.....G......).6.0h.F...B...-nd:.....U..>7..TY..=c......3`^y)B...K..,.CK..~...W+...v=W.u...v..q....w.....y....E..v.~W..*>)....d.w..U...7.g<M.o5..q`.4.5..1....yA...)..p?..l.dXr+.......m..A[6.Q`kff......Gw-..J..4....#...B\..!sz......i...H.E..... ......]...b7...._.b.DR..l....H.g....E.....si...     ..&.y(.A. Z.)....C.....E.A.........m.u....-....
22:58:08.529318 IP lamp-ubuntu-s-1vcpu-1gb-tor1-01.ssh > 135-23-156-44.cpe.pppoe.ca.63022: Flags [P.], seq 6136584:6136876, ack 3565, win 501, length 292
E..L.k@.@......|...,.....i..s...P...N...3...F......C..X3
P.P....?..g=<"VU...b.....Y...Vy,...9....>.X.2..Z_a..-5.u..!..h  ...I.a..r..F......d.M`m...I.b....'"J4R..)..5.?..;^.....*.DT..U...KA....C_X.....8(...@..'k.'s.%..K...._.3......0.......e.L..k........v..N..Ki.$e,...p~..i)D.a...v..X.?....~...@6....i'..&%.,.6..R3..........b....!...
22:58:08.530014 IP lamp-ubuntu-s-1vcpu-1gb-tor1-01.ssh > 135-23-156-44.cpe.pppoe.ca.63022: Flags [P.], seq 6137784:6138436, ack 3565, win 501, length 652
E....o@.@..M...|...,.....i Ws...P...P....G.|rw...4.g.   .....#..n..t..Z....6...a{v...Y.}..7(.!.....o.n..K"....':htm.....\;.H-..%.8....M...C:.C.R.3......?.....Y.Ba._.....Ht|t.W.s.K.c.A=.q&.....#X]...._.T.z.........l..72 .R..!.       .....G.......>........W.w..Y..Y<~.:B.\.&..j$.g."A&`..$.81......`...U.x?....N^F.O.L".Y..C.......4.<.......b..'.... .........T*?.:..J..........l6..w..e....u.$.......t...=..&.g.%.?.............Zl&..x.nF.l..../a.].....,r.E...M*..q.     .s*.e7..q..D...x|-|`$..Y.#.6.....G..l......a5...?/..pqg..|.L;Daz..b.....}....r....(^\@.n....-....L.H...yRL..T.gl...0.-....a...d-...V..bLe....`h...Hj......8..Q...5..Y.o.B....Z.}.h...5.\e.f.M.....L.a..t..k..b...g..n.L.......)........~E[.Z.[qB
22:58:08.530229 IP lamp-ubuntu-s-1vcpu-1gb-tor1-01.ssh > 135-23-156-44.cpe.pppoe.ca.63022: Flags [P.], seq 6138576:6139036, ack 3565, win 501, length 460
E....q@.@......|...,.....i#os...P...O]..iK.........Gm._B..._R..#.(]|.;{...j.x   ........A2.L).eDo..xc.......1en..~U.....e......b.. ......RP.....q4).......7._.............p"}.o.j.X.::....T`K..t.(..jC..Y.... .B..e...+..^.6....",=x\....f.*.0J..3.E.X.......@....MY    ..E...9l.*.}...n8..........W...%O....2..t?.F.....)..P.J\....'z.&..^......Lb......f.. ..!..U....O.P]*....[..b,...${#e..~*        M.Y_.<..X..u!f5...|i..x+.Z...R...[...T.QZ....vD....7.a|(6....9$.a.m.....b.Hn.4....u..DdU,@5+..7....XT{...Q.2k..'.dP2X   a.
22:58:08.530453 IP lamp-ubuntu-s-1vcpu-1gb-tor1-01.ssh > 135-23-156-44.cpe.pppoe.ca.63022: Flags [P.], seq 6139512:6139868, ack 3565, win 501, length 356
E....s@.@..q...|...,.....i'.s...P...N......'..S,p......3.X...q.......\.n...s/P.@q...Kl.T.
...i(m......G..+.t(LO.2<Zm...4.Y._....  ..X..K..!El.....x/..yX..`3..9n...Crp.'W{...E5..U.!.D.=."...jaY......:o-..A....s{..m.~.Hw..f..n8XZ....1...._.EM|B....W.+E_..b'.>c.5..i.....(.n....o.?~.?.^>...B../d.F.0O2'P.,..=m-.0.....
.j^.2......`0g....b`..&vy...fwe.g...)...........V....;JxK       &...0...#...%..q../.f.G6
22:58:08.530694 IP lamp-ubuntu-s-1vcpu-1gb-tor1-01.ssh > 135-23-156-44.cpe.pppoe.ca.63022: Flags [P.], seq 6140208:6140916, ack 3565, win 501, length 708
E....u@.@......|...,.....i).s...P...PU...Mw...K........E~x.........Om.@<Q...3j|~..<.%g.."..........'l"...j~..`......d...x.3k..c..."...}..ll.9..7..k..@.B....v....m.jz.(...1.;./.:
t([...Z\]O.0...d.Qo.`.8)..uQ........=....k.Y+
.....{J.o....`j....I.Ga........[.,.:..T}...
.X../...~....yE..V...<..;.....F.o>q.c./..[ ..?...4.6ZX..-...+.9.ha....Hb....q......!.R[..k....3#/QZ....dES.....I..~;Q8!.W)..!S....D.l.?....]-T........n..D1.i
U[.1...%5".#......n...aO.Y".h.\.p..'...;L....}f.l...Xw.p...
R..&....6..C{.....N...a<....b%.>....F..,..OD#.q....../!J...M*n..............2..m.*.<....+..f....7....?..'S...Cp..V..<..p..Z.]G..:.P.x....z.,.....6...............Ej......rE..-..x.S.Zi}t.L..1.\3..:Y(...o.5.....xykv......4...Uo.....j7l...T*..Z....l7..U.......I..t;.
22:58:08.530848 IP lamp-ubuntu-s-1vcpu-1gb-tor1-01.ssh > 135-23-156-44.cpe.pppoe.ca.63022: Flags [P.], seq 6140916:6141288, ack 3565, win 501, length 372
E....v@.@..^...|...,.....i,.s...P...O.......\s/...).p.<7I4.W....        r.......r..).........^V.I....5..&..t.2E..RtT.   us.'....|..K... n...fya....*.[.98...P.9F..G.4.!...P.G.p`.~<n....'...3.|..Z.(#.9.iD...F.j..}.=..3......f.....T.......q.....5....."....E\.Q....s.]'...    e.s.').ao.6M....i....:....R.....aJ........6...zA...3....G7)..}....L..}.......VcTk%....w..xA.. /.F..=.\9.x&X~....4]yN(.Ir..Ia.m.....m...m.....m&..
.Z=...
22:58:08.530914 IP lamp-ubuntu-s-1vcpu-1gb-tor1-01.ssh > 135-23-156-44.cpe.pppoe.ca.63022: Flags [P.], seq 6141288:6141668, ack 3565, win 501, length 380
E....w@.@..U...|...,.....i..s...P...O...}...]...A.d..[.^........g......Ga.T..X..6.[]K.*w..{......3}.......
.E..)   ..,O.;F..O#&^kQJ.A....X.............2G.....e
.#..    ......Wg.Oq..S-^.7...J..}...._.2G.....?..TnB..`U..P,....<.v.'.Hbr............d...S.....gd.A..x.)U....2~..D..+...e..L...G..'A.x.g...h...........|[...uL..~$.0.....'=
|..1..F]4*.7zX2\..)...W|.7.o=/.qf...B....#R...a..nL....Z............v........."8[..@...=>...9
22:58:08.531061 IP lamp-ubuntu-s-1vcpu-1gb-tor1-01.ssh > 135-23-156-44.cpe.pppoe.ca.63022: Flags [P.], seq 6141704:6141996, ack 3565, win 501, length 292
E..L.y@.@......|...,.....i/.s...P...N.....y.....{.[K5+..Ja.....`.z.M,.o.<.^a..)a?. .}{....jO...c.....i.&..N..4a...../qG..;.....!F$...
...]........W...M..............4d~..........#..1..g.P
X.?f.....s.j..|'...n.K...Q...j.........:V.......}E.p.........GGR...Z..p.=.
^C...\...q.d?..h..[.8.AqI....G.h....:.w.x.....i..b.1.-.....c.....$.|..E

7320 packets captured
15782 packets received by filter
8437 packets dropped by kernel


4)
root@lamp-ubuntu-s-1vcpu-1gb-tor1-01:~# tcpdump -D
1.eth0 [Up, Running]
2.eth1 [Up, Running]
3.lo [Up, Running, Loopback]
4.any (Pseudo-device that captures on all interfaces) [Up, Running]
5.bluetooth-monitor (Bluetooth Linux Monitor) [none]
6.nflog (Linux netfilter log (NFLOG) interface) [none]
7.nfqueue (Linux netfilter queue (NFQUEUE) interface) [none]


5)
tcpdump -XX -i eth0
22:59:42.941109 IP 135-23-156-44.cpe.pppoe.ca.63022 > lamp-ubuntu-s-1vcpu-1gb-tor1-01.ssh: Flags [.], ack 4620968, win 344, length 0
        0x0000:  926e 8050 8faf fe00 0000 0101 0800 4500  .n.P..........E.
        0x0010:  0028 3729 4000 3906 bd30 8717 9c2c 93b6  .(7)@.9..0...,..
        0x0020:  967c f62e 0016 73f6 f8ad dab0 1357 5010  .|....s......WP.
        0x0030:  0158 1015 0000 0000 0000 0000            .X..........
22:59:42.941110 IP 135-23-156-44.cpe.pppoe.ca.63022 > lamp-ubuntu-s-1vcpu-1gb-tor1-01.ssh: Flags [.], ack 4625348, win 327, length 0
        0x0000:  926e 8050 8faf fe00 0000 0101 0800 4500  .n.P..........E.
        0x0010:  0028 372a 4000 3906 bd2f 8717 9c2c 93b6  .(7*@.9../...,..
        0x0020:  967c f62e 0016 73f6 f8ad dab0 2473 5010  .|....s.....$sP.
        0x0030:  0147 ff09 0000 0000 0000 0000            .G..........
22:59:42.941154 IP lamp-ubuntu-s-1vcpu-1gb-tor1-01.ssh > 135-23-156-44.cpe.pppoe.ca.63022: Flags [P.], seq 4664696:4667616, ack 2629, win 501, length 2920
        0x0000:  fe00 0000 0101 926e 8050 8faf 0800 4510  .......n.P....E.
        0x0010:  0b90 1471 4000 4006 cd70 93b6 967c 8717  ...q@.@..p...|..
        0x0020:  9c2c 0016 f62e dab0 be27 73f6 f8ad 5018  .,.......'s...P.
        0x0030:  01f5 58f9 0000 c87a 61c4 7ad5 9c54 6206  ..X....za.z..Tb.
        0x0040:  5551 2747 085d 4d42 0085 a3b7 abd2 dd79  UQ'G.]MB.......y
        0x0050:  552e ea2a 4f8a f95c edaa 5dc7 475a 0e85  U..*O..\..].GZ..
        0x0060:  eedc 0642 3db7 8440 c853 2d5a de4a fd66  ...B=..@.S-Z.J.f
        0x0070:  757e d0e8 8986 605f ee11 2a97 d334 18b4  u~....`_..*..4..
        0x0080:  988c a970 6ccd 9e93 13c0 6129 7cd2 95a0  ...pl.....a)|...
        0x0090:  c064 75ca b36f 9c7b ce13 2688 078b 0ca1  .du..o.{..&.....
        0x00a0:  6b95 a8a0 b215 c04e 557a 4480 e26b 03d8  k......NUzD..k..
        0x00b0:  f7c4 15fe 30b4 ae4b 908f ce0e d187 1964  ....0..K.......d
        0x00c0:  3ffc 6435 7536 9314 ca4a b58c 8cc9 bd06  ?.d5u6...J......
        0x00d0:  651e 75ed 7a78 0e62 5670 9f34 3a44 359f  e.u.zx.bVp.4:D5.
        0x00e0:  a485 ab9d 1974 6f29 1f91 4a28 9d08 e7a4  .....to)..J(....
        0x00f0:  a8ce 4157 a6b9 f1d9 79db 9826 5b2e ea2a  ..AW....y..&[..*
        0x0100:  4a5c 3036 23f5 9060 d3d6 b17f 2b82 aa97  J\06#..`....+...
        0x0110:  f73b fc6a 411c bced fb54 04c1 06be 7885  .;.jA....T....x.
        0x0120:  538b dd59 a4d3 5eb4 0107 1bf0 1372 c215  S..Y..^......r..
        0x0130:  a93e b82c 3e2f 7fdc 8546 86c9 fb60 f148  .>.,>/...F...`.H
        0x0140:  60db 5cdd 0d10 63d0 e01b 524b eaf2 a610  `.\...c...RK....
        0x0150:  550c 4d7a 4093 8377 ba17 40e8 4124 2bad  U.Mz@..w..@.A$+.
        0x0160:  d674 4d14 f016 21db 31d2 ac54 1002 7686  .tM...!.1..T..v.
        0x0170:  9f4b 6aaf cbe6 210e 824e ac71 82b6 351b  .Kj...!..N.q..5.
        0x0180:  dacb 8535 35d3 dfd1 e381 604a 765f 45cb  ...55.....`Jv_E.
        0x0190:  f150 b0b6 a2f0 1185 24dc 1fac c0c0 aee6  .P......$.......
        0x01a0:  6d33 90dd 36c1 b0cc 9abe 1587 7b46 222a  m3..6.......{F"*
        0x01b0:  ac42 46cf 12dd 68f7 3021 844f 8953 2b17  .BF...h.0!.O.S+.
        0x01c0:  d314 e061 0e25 6138 b471 5c9a d61d f704  ...a.%a8.q\.....
        0x01d0:  01ef 54cf caff 6a21 5c9c 565e d2b8 edb5  ..T...j!\.V^....
        0x01e0:  59d2 d318 8abf 39b9 4be4 e4f7 4d52 bdb2  Y.....9.K...MR..
        0x01f0:  372a ec98 5b76 09c7 98ea eba8 74a9 1aca  7*..[v......t...
        0x0200:  74fd 3728 192b 0cef 1ad5 b4dc 049f 71f1  t.7(.+........q.
        0x0210:  8843 93b9 23c7 c458 c7c5 7efc 38ba ab20  .C..#..X..~.8...
        0x0220:  3f52 4358 efd5 7769 83ee 6364 468c 4647  ?RCX..wi..cdF.FG
        0x0230:  086f 16d1 7573 9df1 ef2e b0af bdd1 3c6f  .o..us........<o
        0x0240:  0f8d c83f ba01 c9a4 1810 38f0 1157 7ffd  ...?......8..W..
        0x0250:  423b 198b 0a53 7f12 e1d5 6f7c 8323 fcc0  B;...S....o|.#..
        0x0260:  0f4c ea14 57b3 924d 2834 bc38 61a0 ef95  .L..W..M(4.8a...
        0x0270:  9fe5 ad2a a4d5 5a28 7cfe d6dd 867f 8a6b  ...*..Z(|......k
        0x0280:  9e1a c5c8 5480 a5e7 a032 d334 7548 4d95  ....T....2.4uHM.
        0x0290:  a914 b037 f0b6 35af 22e3 9a35 d5cf af08  ...7..5."..5....
        0x02a0:  5fa3 2295 927a 4e14 649d a105 38ed 779a  _."..zN.d...8.w.
        0x02b0:  b6a8 bc71 f14b 5347 5fc1 d88b b56a 0cca  ...q.KSG_....j..
        0x02c0:  3ba1 9f71 4201 a1f7 4a00 c9c6 4079 e1a1  ;..qB...J...@y..
        0x02d0:  7369 e30b fc30 2a14 7c06 aa1a 0cd1 bdb9  si...0*.|.......
        0x02e0:  a1e6 9c12 42b2 7f42 3a9a 5c43 38a0 7455  ....B..B:.\C8.tU
        0x02f0:  0d77 a6a5 322a 5f34 303a d0ae 5166 3cf7  .w..2*_40:..Qf<.
        0x0300:  86aa 3929 200e 2a07 33dc 11f3 4c4a 41d5  ..9)..*.3...LJA.
        0x0310:  58a4 5d03 d493 9b7a 97c8 3b60 f532 3888  X.]....z..;`.28.
        0x0320:  9841 d1de b9ff 94f2 1674 e4dd 5c43 4e24  .A.......t..\CN$
        0x0330:  03f7 ae88 beef c70b e95e 41cb 7025 a38d  .........^A.p%..
        0x0340:  d6f1 5f3a 2ab6 7865 9d61 9258 ab28 c3f6  .._:*.xe.a.X.(..
        0x0350:  7e47 ee72 89bb c7a7 0917 d5a1 805d 2c24  ~G.r.........],$
        0x0360:  75e9 7ae9 c430 4d05 78f2 b027 d56a b90d  u.z..0M.x..'.j..
        0x0370:  6912 ae5c 42ea a746 c9ce d298 b8ad f4ee  i..\B..F........
        0x0380:  3b11 5d0c a751 5f05 3896 1762 e93d 2ac3  ;.]..Q_.8..b.=*.
        0x0390:  47e9 1598 a201 f40b a5b8 e85a c8d9 165e  G..........Z...^
        0x03a0:  71be bbe6 4cac 1a37 5fe2 23b6 0e0b 1eac  q...L..7_.#.....
        0x03b0:  9259 d3b7 45e4 c0dd 008f 6fb6 9479 331d  .Y..E.....o..y3.
        0x03c0:  f6d1 d1fc 2ce3 41a8 6d66 6965 1746 e96d  ....,.A.mfie.F.m
        0x03d0:  b5f8 48ae e453 318c 2bf3 92f9 f733 01fa  ..H..S1.+....3..
        0x03e0:  af97 d5f0 df17 c8fd e59c b07a 371b 913a  ...........z7..:
        0x03f0:  036d 026b ff12 c2b0 d151 dd96 453a 2378  .m.k.....Q..E:#x
        0x0400:  ed0b 961a d2ac 2618 dbaa b169 f593 e714  ......&....i....
        0x0410:  5711 14fb 8228 9f2f 02b4 7c7b 6eae 58b7  W....(./..|{n.X.
        0x0420:  7cef 08fb 6398 6478 2c65 724c 360d 4e1c  |...c.dx,erL6.N.
        0x0430:  7755 ddc7 4e05 b979 7104 5f1b 742a ddf5  wU..N..yq._.t*..
        0x0440:  b1e1 efd7 4fd1 13f6 c85b 8548 09a1 5b4f  ....O....[.H..[O
        0x0450:  8034 cfb1 278f 613c 0ffb fee5 c90d 6771  .4..'.a<......gq
        0x0460:  246c 0260 4d6c 503e 4446 5947 2d82 5bb4  $l.`MlP>DFYG-.[.
        0x0470:  e342 3c24 bdb1 bae9 32ac 3f8b 1c4b 72a1  .B<$....2.?..Kr.
        0x0480:  9019 8316 3127 30c7 f2f9 d021 e68a 4dea  ....1'0....!..M.
        0x0490:  5ac8 4b80 83f2 d9c8 6509 bd9e 78f6 5a82  Z.K.....e...x.Z.
        0x04a0:  1030 2085 d974 8059 77c2 4624 7c62 9cbe  .0...t.Yw.F$|b..
        0x04b0:  1d15 c14f e065 d407 9fa8 e83f 3118 8e75  ...O.e.....?1..u
        0x04c0:  25af 980c 0742 52bb 5edc 7adb b7c9 4d88  %....BR.^.z...M.
        0x04d0:  c1a7 3b30 96f9 9ab3 af34 d494 ce2d 7b25  ..;0.....4...-{%
        0x04e0:  1a67 8c62 8d13 7986 9077 17fe e5c0 9de0  .g.b..y..w......
        0x04f0:  bb6d beec b5cd 6179 c62a 10b4 692c 3400  .m....ay.*..i,4.
        0x0500:  ef0e 63d9 9afb 8ee8 7336 9b1a d135 f582  ..c.....s6...5..
        0x0510:  a9a4 c6c5 38e6 9bc2 ab60 b8a3 3c7f 6b7d  ....8....`..<.k}
        0x0520:  6e9e 0a91 1f1d 4526 f44c 9173 44ec 2bab  n.....E&.L.sD.+.
        0x0530:  7ebf e968 21d9 08c7 a7e9 76af b379 6a61  ~..h!.....v..yja
        0x0540:  436d 0462 e2a4 1287 b366 b244 0772 7f97  Cm.b.....f.D.r..
        0x0550:  87e6 40ad 53d6 cead d56b b666 72e1 13c4  ..@.S....k.fr...
        0x0560:  769b dc87 65a8 7d69 302f f16c 7e8c 08c6  v...e.}i0/.l~...
        0x0570:  fcc4 8227 d74b 24be 2877 e549 2d2c 7e04  ...'.K$.(w.I-,~.
        0x0580:  8eff 3f1f 3196 47cd 7684 9b0a 27eb 5d8b  ..?.1.G.v...'.].
        0x0590:  583a 9ca4 f077 41c0 7853 213d 3458 2547  X:...wA.xS!=4X%G
        0x05a0:  1b2d 53e4 f146 0b28 3226 53bc ff0d 8bb2  .-S..F.(2&S.....
        0x05b0:  7226 7b63 5c1e aee9 146d de63 d248 1382  r&{c\....m.c.H..
        0x05c0:  f10d d27e b715 7f2c 02d3 a237 7646 b51d  ...~...,...7vF..
        0x05d0:  5267 abaf 15bf 49a4 4679 8e51 86db 49f3  Rg....I.Fy.Q..I.
        0x05e0:  fbd0 e2b7 5f69 2a0d 4d11 31a5 685a 58fc  ...._i*.M.1.hZX.
        0x05f0:  46f8 47d3 009a d25d 0771 d107 a4bb 3019  F.G....].q....0.
        0x0600:  b2b9 74a1 bde1 a9cc 5a66 e944 fa6e 3b41  ..t.....Zf.D.n;A
        0x0610:  8845 a2a7 547c 6888 a531 cf89 3a08 f325  .E..T|h..1..:..%
        0x0620:  d702 51bf 1118 e0df 3dc9 be6f 00f4 f9cd  ..Q.....=..o....
        0x0630:  27da 1a4d 7caa 576b 7559 c42b 5757 49da  '..M|.WkuY.+WWI.
        0x0640:  53bf db4b 7d67 f065 e165 9086 ae1c d48d  S..K}g.e.e......
        0x0650:  1f55 ea03 98fb a025 fc34 9cc8 5957 6aa7  .U.....%.4..YWj.
        0x0660:  120f ca59 fbdc b4d2 16d1 2e1c 9b0b 9285  ...Y............
        0x0670:  3c56 ab28 2bee a455 13df 36e5 7314 c042  <V.(+..U..6.s..B
        0x0680:  8a5e 58f8 e23d bb3c 9018 97f3 f70d bae2  .^X..=.<........
        0x0690:  372d fcf6 b204 9b44 6cef 3d08 c3da 03f1  7-.....Dl.=.....
        0x06a0:  849e d991 2268 8653 5c1d 9837 dfba fc05  ...."h.S\..7....
        0x06b0:  c131 c9e4 a878 fe3e 2905 2078 87d5 3053  .1...x.>)..x..0S
        0x06c0:  f762 99b4 0a9e 8832 431d 1c28 d7e3 22aa  .b.....2C..(..".
        0x06d0:  3061 9682 4f4a b2ac 4310 dd78 486c 0da4  0a..OJ..C..xHl..
        0x06e0:  bea7 0af7 9728 8000 639b 181e 4c77 f28c  .....(..c...Lw..
        0x06f0:  a302 8138 42dc 4eb4 3e11 69e5 7bc2 6105  ...8B.N.>.i.{.a.
        0x0700:  9fa9 102c 58bd fd81 1d6f 39e3 f68e d791  ...,X....o9.....
        0x0710:  4711 f0df 8f7d b476 0d99 c629 02cf 812b  G....}.v...)...+
        0x0720:  78db 61b4 8734 5ebb e734 150c 4b8c faf4  x.a..4^..4..K...
        0x0730:  ab3f 86f8 b4ec 04f7 d259 3dd3 e780 301b  .?.......Y=...0.
        0x0740:  3c78 a205 311b e56a eed2 cb2d d4fb eaa8  <x..1..j...-....
        0x0750:  87a6 28a6 b5fd e2fb e596 2f73 14e3 bbc6  ..(......./s....
        0x0760:  2add b1ca 37b6 5b7e 0333 b22d 1779 9a70  *...7.[~.3.-.y.p
        0x0770:  5b94 199a 83d5 f70b 6705 0b8f 1506 161e  [.......g.......
        0x0780:  0499 6ab1 8a28 8c34 ae09 473f 4254 d271  ..j..(.4..G?BT.q
        0x0790:  2873 b61f b30d 7bcd cb6c a4af e728 7ed4  (s....{..l...(~.
        0x07a0:  72b0 8206 2799 e050 ec25 22c3 ed1b b844  r...'..P.%"....D
        0x07b0:  2382 45cc e064 fd31 ad66 4ac0 65d9 6a14  #.E..d.1.fJ.e.j.
        0x07c0:  c0b8 9953 58cc 2075 8600 e15b 50b4 981f  ...SX..u...[P...
        0x07d0:  4198 4b17 05dc 0f5a 7514 cdd1 4a26 3983  A.K....Zu...J&9.
        0x07e0:  56c7 6573 f7b8 8eff 766e e1e5 2339 02f6  V.es....vn..#9..
        0x07f0:  51d2 d080 efc8 d2d1 b0cf 2320 f5aa 5e92  Q.........#...^.
        0x0800:  ba52 c1f1 e33c 9179 f42c e125 26da d58c  .R...<.y.,.%&...
        0x0810:  c871 ac96 2933 01be 0bf1 517a 2a5e 7d69  .q..)3....Qz*^}i
        0x0820:  5872 9fa4 15e6 538f d301 aae0 0b39 62ac  Xr....S......9b.
        0x0830:  1493 655d 870c a076 7a5a 82ec b8bf 8e73  ..e]...vzZ.....s
        0x0840:  de2e 59eb 47e9 3c86 5657 864d 3810 3688  ..Y.G.<.VW.M8.6.
        0x0850:  b3bf 2629 0b06 e3eb 266f 75be 7634 ac1e  ..&)....&ou.v4..
        0x0860:  e5ce 3b5c c256 0ca9 aab9 99ae 9597 e7da  ..;\.V..........
        0x0870:  7ef2 8d0d 3f05 4cd3 3e34 921a 20df 6de4  ~...?.L.>4....m.
        0x0880:  19b7 642c ae76 ed37 5757 32b2 56cf e23b  ..d,.v.7WW2.V..;
        0x0890:  efe2 1dc7 1649 efe4 71fb b38f 4392 5bf2  .....I..q...C.[.
        0x08a0:  5c57 51d8 109a fd63 7b1d 676e 0f9c cf72  \WQ....c{.gn...r
        0x08b0:  1761 f24f 64ae 99f6 1234 d743 5a2f df87  .a.Od....4.CZ/..
        0x08c0:  8fd4 af21 4300 db5f af82 b21b 643d a6d4  ...!C.._....d=..
        0x08d0:  0b1d 7be3 a438 69e4 20dc 6eb6 8f44 580c  ..{..8i...n..DX.
        0x08e0:  5621 be70 5e79 cc14 2ef1 452a 4f59 1b3c  V!.p^y....E*OY.<
        0x08f0:  df2c f3cc 745c 334d 813b a8df e4cd 60e1  .,..t\3M.;....`.
        0x0900:  d95e 6139 a723 007a 1a25 7e31 3f5c d9b8  .^a9.#.z.%~1?\..
        0x0910:  03ad 7781 f4ba 5203 3672 b6fa 5467 9b88  ..w...R.6r..Tg..
        0x0920:  eab1 b0b7 2697 9e5d fdcf c39f 51a8 530f  ....&..]....Q.S.
        0x0930:  811c d907 99d5 50e2 54e1 ed7e e486 3651  ......P.T..~..6Q
        0x0940:  e268 fe78 33d7 2766 1537 75ff 92a9 9318  .h.x3.'f.7u.....
        0x0950:  3692 156c 3910 21a9 73b5 a3ee fa24 ee0c  6..l9.!.s....$..
        0x0960:  765d 7dd9 8e2a 80fe b943 90b0 9c0a 8a7c  v]}..*...C.....|
        0x0970:  2072 7d6b 612e 66a6 a06e 4c55 2b5d a953  .r}ka.f..nLU+].S
        0x0980:  8243 ccb6 a825 6dd0 92f6 9f9d 648f 95ec  .C...%m.....d...
        0x0990:  6e2b 3967 e114 0159 994a cdf9 ac39 8698  n+9g...Y.J...9..
        0x09a0:  30b2 8f99 fc80 d892 1f94 6848 8224 c96e  0.........hH.$.n
        0x09b0:  76f0 4714 cb39 2b3e 558f 105e 62e8 4040  v.G..9+>U..^b.@@
        0x09c0:  bfe4 fa84 3aba 800b 8f9d 2b77 41ae b8d2  ....:.....+wA...
        0x09d0:  1ec2 65a4 0dab 4b9f e71c 9374 a28a 0b7b  ..e...K....t...{
        0x09e0:  bad0 3e83 3b42 5e95 a15c 283a f4dd 6279  ..>.;B^..\(:..by
        0x09f0:  9b96 759b facb 1f5a 1ba9 6b12 c5a8 8226  ..u....Z..k....&
        0x0a00:  fa95 2142 0320 bc01 7dec 4335 2e15 78af  ..!B....}.C5..x.
        0x0a10:  c2d5 a10d 9941 6361 bcf4 30d2 cf1a 82d8  .....Aca..0.....
        0x0a20:  d339 ecc2 18d2 155d 58ed 8f01 5a24 241b  .9.....]X...Z$$.
        0x0a30:  eed1 9f5a aa23 baa5 88f5 2cb4 2377 3995  ...Z.#....,.#w9.
        0x0a40:  4b2a 5c0b e5d1 99ab fd93 4956 a70f 7c6c  K*\.......IV..|l
        0x0a50:  729a dc88 5af2 30eb 2bcb acba 64a5 c6d7  r...Z.0.+...d...
        0x0a60:  30ee 3347 0545 8a8b 661a 9ea9 78ba af95  0.3G.E..f...x...
        0x0a70:  a005 7bd7 7ff7 4797 4e55 7f13 9581 b0bf  ..{...G.NU......
        0x0a80:  f823 88d0 71a5 ff5e e16b 0b0c ca26 7d1b  .#..q..^.k...&}.
        0x0a90:  d874 4963 eb8d dae5 3f7c 78ee b2b0 1433  .tIc....?|x....3
        0x0aa0:  9e2e abe3 3a90 f16c c56e 7abc f3cf cd16  ....:..l.nz.....
        0x0ab0:  11a3 36ee 95b0 7148 d905 0eaf 3dd1 b856  ..6...qH....=..V
        0x0ac0:  9f24 277d 3c46 700a 4f78 3951 803f b319  .$'}<Fp.Ox9Q.?..
        0x0ad0:  1b66 488c 9ddc fa5e 4657 86f6 bc0f 2050  .fH....^FW.....P
        0x0ae0:  a74a 6fbd ed6e e671 df67 aee5 18c8 f688  .Jo..n.q.g......
        0x0af0:  fa8b f6a6 351b 5852 9d58 0a7f e622 38a7  ....5.XR.X..."8.
        0x0b00:  e819 1195 e608 9d57 70da 06ee d29a 50f4  .......Wp.....P.
        0x0b10:  43b2 0303 9b17 bdae 3841 c0a4 a685 a3c0  C.......8A......
        0x0b20:  7eea 5eb7 cba0 542b 4d97 6937 f82e 7ec1  ~.^...T+M.i7..~.
        0x0b30:  a073 5e96 baa6 f003 1d5b 83c5 71fe 9a14  .s^......[..q...
        0x0b40:  d977 95e7 8a56 3db0 20a6 b238 e5c3 9483  .w...V=....8....
        0x0b50:  da98 0746 ba0f fc97 48f1 b82f 3790 4958  ...F....H../7.IX
        0x0b60:  99d3 1fce f290 6c0a 9382 550d 1ac9 e42b  ......l...U....+
        0x0b70:  6ea7 76d9 81f4 3b0e 9a00 e0a7 dba6 1e1a  n.v...;.........
        0x0b80:  6b7f 4a06 cb34 ceb1 43fa cebd d254 24b0  k.J..4..C....T$.
        0x0b90:  2796 f6ef f2ed b3bd 8725 d2fc e404       '........%....
22:59:42.941192 IP 135-23-156-44.cpe.pppoe.ca.63022 > lamp-ubuntu-s-1vcpu-1gb-tor1-01.ssh: Flags [.], ack 4626808, win 321, length 0
        0x0000:  926e 8050 8faf fe00 0000 0101 0800 4500  .n.P..........E.
        0x0010:  0028 372b 4000 3906 bd2e 8717 9c2c 93b6  .(7+@.9......,..
        0x0020:  967c f62e 0016 73f6 f8ad dab0 2a27 5010  .|....s.....*'P.
        0x0030:  0141 f95b 0000 0000 0000 0000            .A.[........
22:59:42.955038 IP 135-23-156-44.cpe.pppoe.ca.63022 > lamp-ubuntu-s-1vcpu-1gb-tor1-01.ssh: Flags [.], ack 4662780, win 180, length 0
        0x0000:  926e 8050 8faf fe00 0000 0101 0800 4500  .n.P..........E.
        0x0010:  0028 3747 4000 3906 bd12 8717 9c2c 93b6  .(7G@.9......,..
        0x0020:  967c f62e 0016 73f6 f8ad dab0 b6ab 5010  .|....s.......P.
        0x0030:  00b4 6d64 0000 0000 0000 0000            ..md........
22:59:42.963347 IP 135-23-156-44.cpe.pppoe.ca.63022 > lamp-ubuntu-s-1vcpu-1gb-tor1-01.ssh: Flags [.], ack 4685508, win 92, length 0
        0x0000:  926e 8050 8faf fe00 0000 0101 0800 4500  .n.P..........E.
        0x0010:  0028 3754 4000 3906 bd05 8717 9c2c 93b6  .(7T@.9......,..
        0x0020:  967c f62e 0016 73f6 f8ad dab1 0f73 5010  .|....s......sP.
        0x0030:  005c 14f4 0000 0000 0000 0000            .\..........
22:59:42.963348 IP 135-23-156-44.cpe.pppoe.ca.63022 > lamp-ubuntu-s-1vcpu-1gb-tor1-01.ssh: Flags [.], ack 4686348, win 88, length 0
        0x0000:  926e 8050 8faf fe00 0000 0101 0800 4500  .n.P..........E.
        0x0010:  0028 3755 4000 3906 bd04 8717 9c2c 93b6  .(7U@.9......,..
        0x0020:  967c f62e 0016 73f6 f8ad dab1 12bb 5010  .|....s.......P.
        0x0030:  0058 11b0 0000 0000 0000 0000            .X..........
22:59:42.963348 IP 135-23-156-44.cpe.pppoe.ca.63022 > lamp-ubuntu-s-1vcpu-1gb-tor1-01.ssh: Flags [.], ack 4687368, win 84, length 0
        0x0000:  926e 8050 8faf fe00 0000 0101 0800 4500  .n.P..........E.
        0x0010:  0028 3756 4000 3906 bd03 8717 9c2c 93b6  .(7V@.9......,..
        0x0020:  967c f62e 0016 73f6 f8ad dab1 16b7 5010  .|....s.......P.
        0x0030:  0054 0db8 0000 0000 0000 0000            .T..........
22:59:42.963348 IP 135-23-156-44.cpe.pppoe.ca.63022 > lamp-ubuntu-s-1vcpu-1gb-tor1-01.ssh: Flags [.], ack 4687992, win 82, length 0
        0x0000:  926e 8050 8faf fe00 0000 0101 0800 4500  .n.P..........E.
        0x0010:  0028 3757 4000 3906 bd02 8717 9c2c 93b6  .(7W@.9......,..
        0x0020:  967c f62e 0016 73f6 f8ad dab1 1927 5010  .|....s......'P.
        0x0030:  0052 0b4a 0000 0000 0000 0000            .R.J........
22:59:42.963348 IP 135-23-156-44.cpe.pppoe.ca.63022 > lamp-ubuntu-s-1vcpu-1gb-tor1-01.ssh: Flags [.], ack 4689768, win 75, length 0
        0x0000:  926e 8050 8faf fe00 0000 0101 0800 4500  .n.P..........E.
        0x0010:  0028 3758 4000 3906 bd01 8717 9c2c 93b6  .(7X@.9......,..
        0x0020:  967c f62e 0016 73f6 f8ad dab1 2017 5010  .|....s.......P.
        0x0030:  004b 0461 0000 0000 0000 0000            .K.a........
22:59:42.963348 IP 135-23-156-44.cpe.pppoe.ca.63022 > lamp-ubuntu-s-1vcpu-1gb-tor1-01.ssh: Flags [.], ack 4694148, win 58, length 0
        0x0000:  926e 8050 8faf fe00 0000 0101 0800 4500  .n.P..........E.
        0x0010:  0028 3759 4000 3906 bd00 8717 9c2c 93b6  .(7Y@.9......,..
        0x0020:  967c f62e 0016 73f6 f8ad dab1 3133 5010  .|....s.....13P.
        0x0030:  003a f355 0000 0000 0000 0000            .:.U........
22:59:42.963348 IP 135-23-156-44.cpe.pppoe.ca.63022 > lamp-ubuntu-s-1vcpu-1gb-tor1-01.ssh: Flags [.], ack 4697068, win 47, length 0
        0x0000:  926e 8050 8faf fe00 0000 0101 0800 4500  .n.P..........E.
        0x0010:  0028 375a 4000 3906 bcff 8717 9c2c 93b6  .(7Z@.9......,..
        0x0020:  967c f62e 0016 73f6 f8ad dab1 3c9b 5010  .|....s.....<.P.
        0x0030:  002f e7f8 0000 0000 0000 0000            ./..........
22:59:42.963348 IP 135-23-156-44.cpe.pppoe.ca.63022 > lamp-ubuntu-s-1vcpu-1gb-tor1-01.ssh: Flags [.], ack 4698528, win 41, length 0
        0x0000:  926e 8050 8faf fe00 0000 0101 0800 4500  .n.P..........E.
        0x0010:  0028 375b 4000 3906 bcfe 8717 9c2c 93b6  .(7[@.9......,..
        0x0020:  967c f62e 0016 73f6 f8ad dab1 424f 5010  .|....s.....BOP.
        0x0030:  0029 e24a 0000 0000 0000 0000            .).J........
22:59:42.963430 IP 135-23-156-44.cpe.pppoe.ca.63022 > lamp-ubuntu-s-1vcpu-1gb-tor1-01.ssh: Flags [.], ack 4702168, win 27, length 0
        0x0000:  926e 8050 8faf fe00 0000 0101 0800 4500  .n.P..........E.
        0x0010:  0028 375c 4000 3906 bcfd 8717 9c2c 93b6  .(7\@.9......,..
        0x0020:  967c f62e 0016 73f6 f8ad dab1 5087 5010  .|....s.....P.P.
        0x0030:  001b d420 0000 0000 0000 0000            ............
22:59:42.963430 IP 135-23-156-44.cpe.pppoe.ca.63022 > lamp-ubuntu-s-1vcpu-1gb-tor1-01.ssh: Flags [.], ack 4702412, win 26, length 0
        0x0000:  926e 8050 8faf fe00 0000 0101 0800 4500  .n.P..........E.
        0x0010:  0028 375d 4000 3906 bcfc 8717 9c2c 93b6  .(7]@.9......,..
        0x0020:  967c f62e 0016 73f6 f8ad dab1 517b 5010  .|....s.....Q{P.
        0x0030:  001a d32d 0000 0000 0000 0000            ...-........
22:59:42.963430 IP 135-23-156-44.cpe.pppoe.ca.63022 > lamp-ubuntu-s-1vcpu-1gb-tor1-01.ssh: Flags [.], ack 4702792, win 24, length 0
        0x0000:  926e 8050 8faf fe00 0000 0101 0800 4500  .n.P..........E.
        0x0010:  0028 375e 4000 3906 bcfb 8717 9c2c 93b6  .(7^@.9......,..
        0x0020:  967c f62e 0016 73f6 f8ad dab1 52f7 5010  .|....s.....R.P.
        0x0030:  0018 d1b3 0000 0000 0000 0000            ............
22:59:42.967300 IP 135-23-156-44.cpe.pppoe.ca.63022 > lamp-ubuntu-s-1vcpu-1gb-tor1-01.ssh: Flags [.], ack 4708324, win 3, length 0
        0x0000:  926e 8050 8faf fe00 0000 0101 0800 4500  .n.P..........E.
        0x0010:  0028 3766 4000 3906 bcf3 8717 9c2c 93b6  .(7f@.9......,..
        0x0020:  967c f62e 0016 73f6 f8ad dab1 6893 5010  .|....s.....h.P.
        0x0030:  0003 bc2c 0000 0000 0000 0000            ...,........
22:59:42.967300 IP 135-23-156-44.cpe.pppoe.ca.63022 > lamp-ubuntu-s-1vcpu-1gb-tor1-01.ssh: Flags [.], ack 4708948, win 0, length 0
        0x0000:  926e 8050 8faf fe00 0000 0101 0800 4500  .n.P..........E.
        0x0010:  0028 3767 4000 3906 bcf2 8717 9c2c 93b6  .(7g@.9......,..
        0x0020:  967c f62e 0016 73f6 f8ad dab1 6b03 5010  .|....s.....k.P.
        0x0030:  0000 b9bf 0000 0000 0000 0000            ............
22:59:42.987682 IP 135-23-156-44.cpe.pppoe.ca.63022 > lamp-ubuntu-s-1vcpu-1gb-tor1-01.ssh: Flags [P.], seq 2629:2665, ack 4708948, win 0, length 36
^C      0x0000:  926e 8050 8faf fe00 0000 0101 0800 4500  .n.P..........E.
        0x0010:  004c 3768 4000 3906 bccd 8717 9c2c 93b6  .L7h@.9......,..
        0x0020:  967c f62e 0016 73f6 f8ad dab1 6b03 5018  .|....s.....k.P.
        0x0030:  0000 f792 0000 e76a 4df4 3c90 e7e8 a0bf  .......jM.<.....
        0x0040:  7b80 ef74 d204 61cd de89 9f5c 232c 156e  {..t..a....\#,.n
        0x0050:  05a1 0627 20a8 580e eda1                 ...'..X...

1516 packets captured
12193 packets received by filter
10652 packets dropped by kernel

6)

root@lamp-ubuntu-s-1vcpu-1gb-tor1-01:~# tcpdump -w 0001.pcap -i eth0
tcpdump: listening on eth0, link-type EN10MB (Ethernet), capture size 262144 bytes
^C32 packets captured
35 packets received by filter
0 packets dropped by kernel

7)
root@lamp-ubuntu-s-1vcpu-1gb-tor1-01:~# tcpdump -r 0001.pcap
reading from file 0001.pcap, link-type EN10MB (Ethernet)
23:00:57.130707 IP lamp-ubuntu-s-1vcpu-1gb-tor1-01.ssh > 135-23-156-44.cpe.pppoe.ca.63022: Flags [P.], seq 3669157059:3669157103, ack 1945565785, win 501, length 44
23:00:57.130852 IP lamp-ubuntu-s-1vcpu-1gb-tor1-01.ssh > 135-23-156-44.cpe.pppoe.ca.63022: Flags [P.], seq 44:152, ack 1, win 501, length 108
23:00:57.130949 IP lamp-ubuntu-s-1vcpu-1gb-tor1-01.ssh > 135-23-156-44.cpe.pppoe.ca.63022: Flags [P.], seq 152:188, ack 1, win 501, length 36
23:00:57.149672 IP 135-23-156-44.cpe.pppoe.ca.63022 > lamp-ubuntu-s-1vcpu-1gb-tor1-01.ssh: Flags [.], ack 4294967260, win 1026, options [nop,nop,sack 1 {0:44}], length 0
23:00:57.149673 IP 135-23-156-44.cpe.pppoe.ca.63022 > lamp-ubuntu-s-1vcpu-1gb-tor1-01.ssh: Flags [.], ack 4294967260, win 1026, options [nop,nop,sack 1 {0:152}], length 0
23:00:57.149673 IP 135-23-156-44.cpe.pppoe.ca.63022 > lamp-ubuntu-s-1vcpu-1gb-tor1-01.ssh: Flags [.], ack 4294967260, win 1026, options [nop,nop,sack 1 {0:188}], length 0
23:00:57.149746 IP lamp-ubuntu-s-1vcpu-1gb-tor1-01.ssh > 135-23-156-44.cpe.pppoe.ca.63022: Flags [P.], seq 4294967260:0, ack 1, win 501, length 36
23:00:57.254731 IP 135-23-156-44.cpe.pppoe.ca.63022 > lamp-ubuntu-s-1vcpu-1gb-tor1-01.ssh: Flags [.], ack 188, win 1025, length 0
23:00:57.368200 IP 135-23-156-44.cpe.pppoe.ca.63022 > lamp-ubuntu-s-1vcpu-1gb-tor1-01.ssh: Flags [.], ack 188, win 1025, length 0
23:00:57.368201 IP 135-23-156-44.cpe.pppoe.ca.63022 > lamp-ubuntu-s-1vcpu-1gb-tor1-01.ssh: Flags [.], ack 188, win 1025, options [nop,nop,sack 1 {4294967260:0}], length 0
23:00:57.901619 IP lamp-ubuntu-s-1vcpu-1gb-tor1-01.ssh > 121.5.171.213.46820: Flags [P.], seq 784329077:784329145, ack 1348230074, win 507, options [nop,nop,TS val 4101690317 ecr 1421844875], length 68
23:00:58.110414 IP 121.5.171.213.46820 > lamp-ubuntu-s-1vcpu-1gb-tor1-01.ssh: Flags [.], ack 68, win 262, options [nop,nop,TS val 1421851662 ecr 4101690317,nop,nop,sack 1 {0:68}], length 0
23:00:58.110492 IP lamp-ubuntu-s-1vcpu-1gb-tor1-01 > 121.5.171.213: ICMP lamp-ubuntu-s-1vcpu-1gb-tor1-01 tcp port ssh unreachable, length 72
23:00:58.961040 IP 179.127.167.201.35178 > lamp-ubuntu-s-1vcpu-1gb-tor1-01.ssh: Flags [S], seq 653509688, win 64240, options [mss 1460,sackOK,TS val 3233883613 ecr 0,nop,wscale 7], length 0
23:00:58.961116 IP lamp-ubuntu-s-1vcpu-1gb-tor1-01 > 179.127.167.201: ICMP lamp-ubuntu-s-1vcpu-1gb-tor1-01 tcp port ssh unreachable, length 68
23:00:59.693617 IP lamp-ubuntu-s-1vcpu-1gb-tor1-01.ssh > 49.88.112.72.11447: Flags [S.], seq 155666339, ack 3599259682, win 65160, options [mss 1460,sackOK,TS val 1198162262 ecr 1972411023,nop,wscale 7], length 0
23:01:01.741628 IP lamp-ubuntu-s-1vcpu-1gb-tor1-01.ssh > 121.5.171.213.46820: Flags [P.], seq 0:68, ack 1, win 507, options [nop,nop,TS val 4101694157 ecr 1421844875], length 68
23:01:01.950643 IP 121.5.171.213.46820 > lamp-ubuntu-s-1vcpu-1gb-tor1-01.ssh: Flags [.], ack 68, win 262, options [nop,nop,TS val 1421855502 ecr 4101694157,nop,nop,sack 1 {0:68}], length 0
23:01:01.950714 IP lamp-ubuntu-s-1vcpu-1gb-tor1-01 > 121.5.171.213: ICMP lamp-ubuntu-s-1vcpu-1gb-tor1-01 tcp port ssh unreachable, length 72
23:01:02.102002 IP 45.145.66.165.57584 > lamp-ubuntu-s-1vcpu-1gb-tor1-01.1302: Flags [S], seq 4097270277, win 1024, length 0
23:01:03.184110 IP 121.5.171.213.46820 > lamp-ubuntu-s-1vcpu-1gb-tor1-01.ssh: Flags [FP.], seq 1:53, ack 68, win 262, options [nop,nop,TS val 1421856736 ecr 4101694157], length 52
23:01:03.184199 IP lamp-ubuntu-s-1vcpu-1gb-tor1-01 > 121.5.171.213: ICMP lamp-ubuntu-s-1vcpu-1gb-tor1-01 tcp port ssh unreachable, length 112
23:01:03.468027 IP 45.144.155.140.61002 > lamp-ubuntu-s-1vcpu-1gb-tor1-01.6666: Flags [S], seq 291378515, win 1024, options [mss 536], length 0
23:01:05.395447 IP ec2-13-210-243-136.ap-southeast-2.compute.amazonaws.com > lamp-ubuntu-s-1vcpu-1gb-tor1-01: ICMP echo request, id 18, seq 17435, length 16
23:01:05.395602 IP lamp-ubuntu-s-1vcpu-1gb-tor1-01 > ec2-13-210-243-136.ap-southeast-2.compute.amazonaws.com: ICMP echo reply, id 18, seq 17435, length 16
23:01:09.421612 IP lamp-ubuntu-s-1vcpu-1gb-tor1-01.ssh > 121.5.171.213.46820: Flags [P.], seq 0:68, ack 1, win 507, options [nop,nop,TS val 4101701837 ecr 1421844875], length 68
23:01:09.630427 IP 121.5.171.213.46820 > lamp-ubuntu-s-1vcpu-1gb-tor1-01.ssh: Flags [.], ack 68, win 262, options [nop,nop,TS val 1421863182 ecr 4101701837,nop,nop,sack 1 {0:68}], length 0
23:01:09.630547 IP lamp-ubuntu-s-1vcpu-1gb-tor1-01 > 121.5.171.213: ICMP lamp-ubuntu-s-1vcpu-1gb-tor1-01 tcp port ssh unreachable, length 72
23:01:11.408125 IP 121.5.171.213.46820 > lamp-ubuntu-s-1vcpu-1gb-tor1-01.ssh: Flags [FP.], seq 1:53, ack 68, win 262, options [nop,nop,TS val 1421864960 ecr 4101701837], length 52
23:01:11.408191 IP lamp-ubuntu-s-1vcpu-1gb-tor1-01 > 121.5.171.213: ICMP lamp-ubuntu-s-1vcpu-1gb-tor1-01 tcp port ssh unreachable, length 112
23:01:17.990723 IP 187-87-138-232.surfixtelecom.com.br.43111 > lamp-ubuntu-s-1vcpu-1gb-tor1-01.ms-sql-s: Flags [S], seq 2533805693, win 1024, length 0
23:01:18.303229 IP 94.232.45.43.49085 > lamp-ubuntu-s-1vcpu-1gb-tor1-01.18572: Flags [S], seq 3039970628, win 1024, length 0

8)
root@lamp-ubuntu-s-1vcpu-1gb-tor1-01:~# tcpdump -n -i eth0
reading from file 0001.pcap, link-type EN10MB (Ethernet)
23:00:57.130707 IP lamp-ubuntu-s-1vcpu-1gb-tor1-01.ssh > 135-23-156-44.cpe.pppoe.ca.63022: Flags [P.], seq 3669157059:3669157103, ack 1945565785, win 501, length 44
23:00:57.130852 IP lamp-ubuntu-s-1vcpu-1gb-tor1-01.ssh > 135-23-156-44.cpe.pppoe.ca.63022: Flags [P.], seq 44:152, ack 1, win 501, length 108
23:00:57.130949 IP lamp-ubuntu-s-1vcpu-1gb-tor1-01.ssh > 135-23-156-44.cpe.pppoe.ca.63022: Flags [P.], seq 152:188, ack 1, win 501, length 36
23:00:57.149672 IP 135-23-156-44.cpe.pppoe.ca.63022 > lamp-ubuntu-s-1vcpu-1gb-tor1-01.ssh: Flags [.], ack 4294967260, win 1026, options [nop,nop,sack 1 {0:44}], length 0
23:00:57.149673 IP 135-23-156-44.cpe.pppoe.ca.63022 > lamp-ubuntu-s-1vcpu-1gb-tor1-01.ssh: Flags [.], ack 4294967260, win 1026, options [nop,nop,sack 1 {0:152}], length 0
23:00:57.149673 IP 135-23-156-44.cpe.pppoe.ca.63022 > lamp-ubuntu-s-1vcpu-1gb-tor1-01.ssh: Flags [.], ack 4294967260, win 1026, options [nop,nop,sack 1 {0:188}], length 0
23:00:57.149746 IP lamp-ubuntu-s-1vcpu-1gb-tor1-01.ssh > 135-23-156-44.cpe.pppoe.ca.63022: Flags [P.], seq 4294967260:0, ack 1, win 501, length 36
23:00:57.254731 IP 135-23-156-44.cpe.pppoe.ca.63022 > lamp-ubuntu-s-1vcpu-1gb-tor1-01.ssh: Flags [.], ack 188, win 1025, length 0
23:00:57.368200 IP 135-23-156-44.cpe.pppoe.ca.63022 > lamp-ubuntu-s-1vcpu-1gb-tor1-01.ssh: Flags [.], ack 188, win 1025, length 0
23:00:57.368201 IP 135-23-156-44.cpe.pppoe.ca.63022 > lamp-ubuntu-s-1vcpu-1gb-tor1-01.ssh: Flags [.], ack 188, win 1025, options [nop,nop,sack 1 {4294967260:0}], length 0
23:00:57.901619 IP lamp-ubuntu-s-1vcpu-1gb-tor1-01.ssh > 121.5.171.213.46820: Flags [P.], seq 784329077:784329145, ack 1348230074, win 507, options [nop,nop,TS val 4101690317 ecr 1421844875], length 68
23:00:58.110414 IP 121.5.171.213.46820 > lamp-ubuntu-s-1vcpu-1gb-tor1-01.ssh: Flags [.], ack 68, win 262, options [nop,nop,TS val 1421851662 ecr 4101690317,nop,nop,sack 1 {0:68}], length 0
23:00:58.110492 IP lamp-ubuntu-s-1vcpu-1gb-tor1-01 > 121.5.171.213: ICMP lamp-ubuntu-s-1vcpu-1gb-tor1-01 tcp port ssh unreachable, length 72
23:00:58.961040 IP 179.127.167.201.35178 > lamp-ubuntu-s-1vcpu-1gb-tor1-01.ssh: Flags [S], seq 653509688, win 64240, options [mss 1460,sackOK,TS val 3233883613 ecr 0,nop,wscale 7], length 0
23:00:58.961116 IP lamp-ubuntu-s-1vcpu-1gb-tor1-01 > 179.127.167.201: ICMP lamp-ubuntu-s-1vcpu-1gb-tor1-01 tcp port ssh unreachable, length 68
23:00:59.693617 IP lamp-ubuntu-s-1vcpu-1gb-tor1-01.ssh > 49.88.112.72.11447: Flags [S.], seq 155666339, ack 3599259682, win 65160, options [mss 1460,sackOK,TS val 1198162262 ecr 1972411023,nop,wscale 7], length 0
23:01:01.741628 IP lamp-ubuntu-s-1vcpu-1gb-tor1-01.ssh > 121.5.171.213.46820: Flags [P.], seq 0:68, ack 1, win 507, options [nop,nop,TS val 4101694157 ecr 1421844875], length 68
23:01:01.950643 IP 121.5.171.213.46820 > lamp-ubuntu-s-1vcpu-1gb-tor1-01.ssh: Flags [.], ack 68, win 262, options [nop,nop,TS val 1421855502 ecr 4101694157,nop,nop,sack 1 {0:68}], length 0
23:01:01.950714 IP lamp-ubuntu-s-1vcpu-1gb-tor1-01 > 121.5.171.213: ICMP lamp-ubuntu-s-1vcpu-1gb-tor1-01 tcp port ssh unreachable, length 72
23:01:02.102002 IP 45.145.66.165.57584 > lamp-ubuntu-s-1vcpu-1gb-tor1-01.1302: Flags [S], seq 4097270277, win 1024, length 0
23:01:03.184110 IP 121.5.171.213.46820 > lamp-ubuntu-s-1vcpu-1gb-tor1-01.ssh: Flags [FP.], seq 1:53, ack 68, win 262, options [nop,nop,TS val 1421856736 ecr 4101694157], length 52
23:01:03.184199 IP lamp-ubuntu-s-1vcpu-1gb-tor1-01 > 121.5.171.213: ICMP lamp-ubuntu-s-1vcpu-1gb-tor1-01 tcp port ssh unreachable, length 112
23:01:03.468027 IP 45.144.155.140.61002 > lamp-ubuntu-s-1vcpu-1gb-tor1-01.6666: Flags [S], seq 291378515, win 1024, options [mss 536], length 0
23:01:05.395447 IP ec2-13-210-243-136.ap-southeast-2.compute.amazonaws.com > lamp-ubuntu-s-1vcpu-1gb-tor1-01: ICMP echo request, id 18, seq 17435, length 16
23:01:05.395602 IP lamp-ubuntu-s-1vcpu-1gb-tor1-01 > ec2-13-210-243-136.ap-southeast-2.compute.amazonaws.com: ICMP echo reply, id 18, seq 17435, length 16
23:01:09.421612 IP lamp-ubuntu-s-1vcpu-1gb-tor1-01.ssh > 121.5.171.213.46820: Flags [P.], seq 0:68, ack 1, win 507, options [nop,nop,TS val 4101701837 ecr 1421844875], length 68
23:01:09.630427 IP 121.5.171.213.46820 > lamp-ubuntu-s-1vcpu-1gb-tor1-01.ssh: Flags [.], ack 68, win 262, options [nop,nop,TS val 1421863182 ecr 4101701837,nop,nop,sack 1 {0:68}], length 0
23:01:09.630547 IP lamp-ubuntu-s-1vcpu-1gb-tor1-01 > 121.5.171.213: ICMP lamp-ubuntu-s-1vcpu-1gb-tor1-01 tcp port ssh unreachable, length 72
23:01:11.408125 IP 121.5.171.213.46820 > lamp-ubuntu-s-1vcpu-1gb-tor1-01.ssh: Flags [FP.], seq 1:53, ack 68, win 262, options [nop,nop,TS val 1421864960 ecr 4101701837], length 52
23:01:11.408191 IP lamp-ubuntu-s-1vcpu-1gb-tor1-01 > 121.5.171.213: ICMP lamp-ubuntu-s-1vcpu-1gb-tor1-01 tcp port ssh unreachable, length 112
23:01:17.990723 IP 187-87-138-232.surfixtelecom.com.br.43111 > lamp-ubuntu-s-1vcpu-1gb-tor1-01.ms-sql-s: Flags [S], seq 2533805693, win 1024, length 0
23:01:18.303229 IP 94.232.45.43.49085 > lamp-ubuntu-s-1vcpu-1gb-tor1-01.18572: Flags [S], seq 3039970628, win 1024, length 0
root@lamp-ubuntu-s-1vcpu-1gb-tor1-01:~# tcpdump -n -i eth0^C
root@lamp-ubuntu-s-1vcpu-1gb-tor1-01:~# tcpdump -r 0001.pcap
reading from file 0001.pcap, link-type EN10MB (Ethernet)
23:00:57.130707 IP lamp-ubuntu-s-1vcpu-1gb-tor1-01.ssh > 135-23-156-44.cpe.pppoe.ca.63022: Flags [P.], seq 3669157059:3669157103, ack 1945565785, win 501, length 44
23:00:57.130852 IP lamp-ubuntu-s-1vcpu-1gb-tor1-01.ssh > 135-23-156-44.cpe.pppoe.ca.63022: Flags [P.], seq 44:152, ack 1, win 501, length 108
23:00:57.130949 IP lamp-ubuntu-s-1vcpu-1gb-tor1-01.ssh > 135-23-156-44.cpe.pppoe.ca.63022: Flags [P.], seq 152:188, ack 1, win 501, length 36
23:00:57.149672 IP 135-23-156-44.cpe.pppoe.ca.63022 > lamp-ubuntu-s-1vcpu-1gb-tor1-01.ssh: Flags [.], ack 4294967260, win 1026, options [nop,nop,sack 1 {0:44}], length 0
23:00:57.149673 IP 135-23-156-44.cpe.pppoe.ca.63022 > lamp-ubuntu-s-1vcpu-1gb-tor1-01.ssh: Flags [.], ack 4294967260, win 1026, options [nop,nop,sack 1 {0:152}], length 0
23:00:57.149673 IP 135-23-156-44.cpe.pppoe.ca.63022 > lamp-ubuntu-s-1vcpu-1gb-tor1-01.ssh: Flags [.], ack 4294967260, win 1026, options [nop,nop,sack 1 {0:188}], length 0
23:00:57.149746 IP lamp-ubuntu-s-1vcpu-1gb-tor1-01.ssh > 135-23-156-44.cpe.pppoe.ca.63022: Flags [P.], seq 4294967260:0, ack 1, win 501, length 36
23:00:57.254731 IP 135-23-156-44.cpe.pppoe.ca.63022 > lamp-ubuntu-s-1vcpu-1gb-tor1-01.ssh: Flags [.], ack 188, win 1025, length 0
23:00:57.368200 IP 135-23-156-44.cpe.pppoe.ca.63022 > lamp-ubuntu-s-1vcpu-1gb-tor1-01.ssh: Flags [.], ack 188, win 1025, length 0
23:00:57.368201 IP 135-23-156-44.cpe.pppoe.ca.63022 > lamp-ubuntu-s-1vcpu-1gb-tor1-01.ssh: Flags [.], ack 188, win 1025, options [nop,nop,sack 1 {4294967260:0}], length 0
23:00:57.901619 IP lamp-ubuntu-s-1vcpu-1gb-tor1-01.ssh > 121.5.171.213.46820: Flags [P.], seq 784329077:784329145, ack 1348230074, win 507, options [nop,nop,TS val 4101690317 ecr 1421844875], length 68
23:00:58.110414 IP 121.5.171.213.46820 > lamp-ubuntu-s-1vcpu-1gb-tor1-01.ssh: Flags [.], ack 68, win 262, options [nop,nop,TS val 1421851662 ecr 4101690317,nop,nop,sack 1 {0:68}], length 0
23:00:58.110492 IP lamp-ubuntu-s-1vcpu-1gb-tor1-01 > 121.5.171.213: ICMP lamp-ubuntu-s-1vcpu-1gb-tor1-01 tcp port ssh unreachable, length 72
23:00:58.961040 IP 179.127.167.201.35178 > lamp-ubuntu-s-1vcpu-1gb-tor1-01.ssh: Flags [S], seq 653509688, win 64240, options [mss 1460,sackOK,TS val 3233883613 ecr 0,nop,wscale 7], length 0
23:00:58.961116 IP lamp-ubuntu-s-1vcpu-1gb-tor1-01 > 179.127.167.201: ICMP lamp-ubuntu-s-1vcpu-1gb-tor1-01 tcp port ssh unreachable, length 68
23:00:59.693617 IP lamp-ubuntu-s-1vcpu-1gb-tor1-01.ssh > 49.88.112.72.11447: Flags [S.], seq 155666339, ack 3599259682, win 65160, options [mss 1460,sackOK,TS val 1198162262 ecr 1972411023,nop,wscale 7], length 0
23:01:01.741628 IP lamp-ubuntu-s-1vcpu-1gb-tor1-01.ssh > 121.5.171.213.46820: Flags [P.], seq 0:68, ack 1, win 507, options [nop,nop,TS val 4101694157 ecr 1421844875], length 68
23:01:01.950643 IP 121.5.171.213.46820 > lamp-ubuntu-s-1vcpu-1gb-tor1-01.ssh: Flags [.], ack 68, win 262, options [nop,nop,TS val 1421855502 ecr 4101694157,nop,nop,sack 1 {0:68}], length 0
23:01:01.950714 IP lamp-ubuntu-s-1vcpu-1gb-tor1-01 > 121.5.171.213: ICMP lamp-ubuntu-s-1vcpu-1gb-tor1-01 tcp port ssh unreachable, length 72
23:01:02.102002 IP 45.145.66.165.57584 > lamp-ubuntu-s-1vcpu-1gb-tor1-01.1302: Flags [S], seq 4097270277, win 1024, length 0
23:01:03.184110 IP 121.5.171.213.46820 > lamp-ubuntu-s-1vcpu-1gb-tor1-01.ssh: Flags [FP.], seq 1:53, ack 68, win 262, options [nop,nop,TS val 1421856736 ecr 4101694157], length 52
23:01:03.184199 IP lamp-ubuntu-s-1vcpu-1gb-tor1-01 > 121.5.171.213: ICMP lamp-ubuntu-s-1vcpu-1gb-tor1-01 tcp port ssh unreachable, length 112
23:01:03.468027 IP 45.144.155.140.61002 > lamp-ubuntu-s-1vcpu-1gb-tor1-01.6666: Flags [S], seq 291378515, win 1024, options [mss 536], length 0
23:01:05.395447 IP ec2-13-210-243-136.ap-southeast-2.compute.amazonaws.com > lamp-ubuntu-s-1vcpu-1gb-tor1-01: ICMP echo request, id 18, seq 17435, length 16
23:01:05.395602 IP lamp-ubuntu-s-1vcpu-1gb-tor1-01 > ec2-13-210-243-136.ap-southeast-2.compute.amazonaws.com: ICMP echo reply, id 18, seq 17435, length 16
23:01:09.421612 IP lamp-ubuntu-s-1vcpu-1gb-tor1-01.ssh > 121.5.171.213.46820: Flags [P.], seq 0:68, ack 1, win 507, options [nop,nop,TS val 4101701837 ecr 1421844875], length 68
23:01:09.630427 IP 121.5.171.213.46820 > lamp-ubuntu-s-1vcpu-1gb-tor1-01.ssh: Flags [.], ack 68, win 262, options [nop,nop,TS val 1421863182 ecr 4101701837,nop,nop,sack 1 {0:68}], length 0
23:01:09.630547 IP lamp-ubuntu-s-1vcpu-1gb-tor1-01 > 121.5.171.213: ICMP lamp-ubuntu-s-1vcpu-1gb-tor1-01 tcp port ssh unreachable, length 72
23:01:11.408125 IP 121.5.171.213.46820 > lamp-ubuntu-s-1vcpu-1gb-tor1-01.ssh: Flags [FP.], seq 1:53, ack 68, win 262, options [nop,nop,TS val 1421864960 ecr 4101701837], length 52
23:01:11.408191 IP lamp-ubuntu-s-1vcpu-1gb-tor1-01 > 121.5.171.213: ICMP lamp-ubuntu-s-1vcpu-1gb-tor1-01 tcp port ssh unreachable, length 112
23:01:17.990723 IP 187-87-138-232.surfixtelecom.com.br.43111 > lamp-ubuntu-s-1vcpu-1gb-tor1-01.ms-sql-s: Flags [S], seq 25338056

9)
root@lamp-ubuntu-s-1vcpu-1gb-tor1-01:~# tcpdump -i eth0 tcp
23:03:12.028312 IP 135-23-156-44.cpe.pppoe.ca.63022 > lamp-ubuntu-s-1vcpu-1gb-tor1-01.ssh: Flags [.], ack 1856688, win 1022, length 0
23:03:12.028494 IP lamp-ubuntu-s-1vcpu-1gb-tor1-01.ssh > 135-23-156-44.cpe.pppoe.ca.63022: Flags [P.], seq 1862372:1862696, ack 1117, win 501, length 324
23:03:12.028702 IP lamp-ubuntu-s-1vcpu-1gb-tor1-01.ssh > 135-23-156-44.cpe.pppoe.ca.63022: Flags [P.], seq 1862696:1862892, ack 1117, win 501, length 196
23:03:12.028927 IP lamp-ubuntu-s-1vcpu-1gb-tor1-01.ssh > 135-23-156-44.cpe.pppoe.ca.63022: Flags [P.], seq 1862892:1863088, ack 1117, win 501, length 196
23:03:12.029159 IP lamp-ubuntu-s-1vcpu-1gb-tor1-01.ssh > 135-23-156-44.cpe.pppoe.ca.63022: Flags [P.], seq 1863088:1863284, ack 1117, win 501, length 196
23:03:12.029425 IP lamp-ubuntu-s-1vcpu-1gb-tor1-01.ssh > 135-23-156-44.cpe.pppoe.ca.63022: Flags [P.], seq 1863284:1863480, ack 1117, win 501, length 196
23:03:12.029745 IP lamp-ubuntu-s-1vcpu-1gb-tor1-01.ssh > 135-23-156-44.cpe.pppoe.ca.63022: Flags [P.], seq 1863480:1863676, ack 1117, win 501, length 196
23:03:12.029909 IP lamp-ubuntu-s-1vcpu-1gb-tor1-01.ssh > 135-23-156-44.cpe.pppoe.ca.63022: Flags [P.], seq 1863676:1863872, ack 1117, win 501, length 196
23:03:12.030070 IP lamp-ubuntu-s-1vcpu-1gb-tor1-01.ssh > 135-23-156-44.cpe.pppoe.ca.63022: Flags [P.], seq 1863872:1864068, ack 1117, win 501, length 196
23:03:12.030198 IP lamp-ubuntu-s-1vcpu-1gb-tor1-01.ssh > 135-23-156-44.cpe.pppoe.ca.63022: Flags [P.], seq 1864068:1864264, ack 1117, win 501, length 196
23:03:12.030317 IP lamp-ubuntu-s-1vcpu-1gb-tor1-01.ssh > 135-23-156-44.cpe.pppoe.ca.63022: Flags [P.], seq 1864264:1864460, ack 1117, win 501, length 196
23:03:12.030436 IP lamp-ubuntu-s-1vcpu-1gb-tor1-01.ssh > 135-23-156-44.cpe.pppoe.ca.63022: Flags [P.], seq 1864460:1864656, ack 1117, win 501, length 196
23:03:12.030554 IP lamp-ubuntu-s-1vcpu-1gb-tor1-01.ssh > 135-23-156-44.cpe.pppoe.ca.63022: Flags [P.], seq 1864656:1864852, ack 1117, win 501, length 196
23:03:12.030672 IP lamp-ubuntu-s-1vcpu-1gb-tor1-01.ssh > 135-23-156-44.cpe.pppoe.ca.63022: Flags [P.], seq 1864852:1865048, ack 1117, win 501, length 196
23:03:12.030794 IP lamp-ubuntu-s-1vcpu-1gb-tor1-01.ssh > 135-23-156-44.cpe.pppoe.ca.63022: Flags [P.], seq 1865048:1865244, ack 1117, win 501, length 196
23:03:12.030918 IP lamp-ubuntu-s-1vcpu-1gb-tor1-01.ssh > 135-23-156-44.cpe.pppoe.ca.63022: Flags [P.], seq 1865244:1865440, ack 1117, win 501, length 196
23:03:12.031039 IP lamp-ubuntu-s-1vcpu-1gb-tor1-01.ssh > 135-23-156-44.cpe.pppoe.ca.63022: Flags [P.], seq 1865440:1865636, ack 1117, win 501, length 196
23:03:12.031161 IP lamp-ubuntu-s-1vcpu-1gb-tor1-01.ssh > 135-23-156-44.cpe.pppoe.ca.63022: Flags [P.], seq 1865636:1865832, ack 1117, win 501, length 196
23:03:12.031391 IP lamp-ubuntu-s-1vcpu-1gb-tor1-01.ssh > 135-23-156-44.cpe.pppoe.ca.63022: Flags [P.], seq 1865832:1866028, ack 1117, win 501, length 196
23:03:12.031540 IP lamp-ubuntu-s-1vcpu-1gb-tor1-01.ssh > 135-23-156-44.cpe.pppoe.ca.63022: Flags [P.], seq 1866028:1866224, ack 1117, win 501, length 196
23:03:12.031668 IP lamp-ubuntu-s-1vcpu-1gb-tor1-01.ssh > 135-23-156-44.cpe.pppoe.ca.63022: Flags [P.], seq 1866224:1866420, ack 1117, win 501, length 196
23:03:12.031793 IP lamp-ubuntu-s-1vcpu-1gb-tor1-01.ssh > 135-23-156-44.cpe.pppoe.ca.63022: Flags [P.], seq 1866420:1866616, ack 1117, win 501, length 196
23:03:12.031911 IP lamp-ubuntu-s-1vcpu-1gb-tor1-01.ssh > 135-23-156-44.cpe.pppoe.ca.63022: Flags [P.], seq 1866616:1866812, ack 1117, win 501, length 196
23:03:12.032041 IP lamp-ubuntu-s-1vcpu-1gb-tor1-01.ssh > 135-23-156-44.cpe.pppoe.ca.63022: Flags [P.], seq 1866812:1867008, ack 1117, win 501, length 196
23:03:12.032162 IP lamp-ubuntu-s-1vcpu-1gb-tor1-01.ssh > 135-23-156-44.cpe.pppoe.ca.63022: Flags [P.], seq 1867008:1867204, ack 1117, win 501, length 196
23:03:12.032283 IP lamp-ubuntu-s-1vcpu-1gb-tor1-01.ssh > 135-23-156-44.cpe.pppoe.ca.63022: Flags [P.], seq 1867204:1867400, ack 1117, win 501, length 196
23:03:12.032407 IP lamp-ubuntu-s-1vcpu-1gb-tor1-01.ssh > 135-23-156-44.cpe.pppoe.ca.63022: Flags [P.], seq 1867400:1867596, ack 1117, win 501, length 196
23:03:12.032548 IP lamp-ubuntu-s-1vcpu-1gb-tor1-01.ssh > 135-23-156-44.cpe.pppoe.ca.63022: Flags [P.], seq 1867596:1867792, ack 1117, win 501, length 196
23:03:12.032671 IP lamp-ubuntu-s-1vcpu-1gb-tor1-01.ssh > 135-23-156-44.cpe.pppoe.ca.63022: Flags [P.], seq 1867792:1867988, ack 1117, win 501, length 196
23:03:12.032792 IP lamp-ubuntu-s-1vcpu-1gb-tor1-01.ssh > 135-23-156-44.cpe.pppoe.ca.63022: Flags [P.], seq 1867988:1868184, ack 1117, win 501, length 196
23:03:12.032921 IP lamp-ubuntu-s-1vcpu-1gb-tor1-01.ssh > 135-23-156-44.cpe.pppoe.ca.63022: Flags [P.], seq 1868184:1868380, ack 1117, win 501, length 196
23:03:12.033042 IP lamp-ubuntu-s-1vcpu-1gb-tor1-01.ssh > 135-23-156-44.cpe.pppoe.ca.63022: Flags [P.], seq 1868380:1868576, ack 1117, win 501, length 196
23:03:12.033381 IP lamp-ubuntu-s-1vcpu-1gb-tor1-01.ssh > 135-23-156-44.cpe.pppoe.ca.63022: Flags [P.], seq 1868576:1868772, ack 1117, win 501, length 196
23:03:12.033558 IP lamp-ubuntu-s-1vcpu-1gb-tor1-01.ssh > 135-23-156-44.cpe.pppoe.ca.63022: Flags [P.], seq 1868772:1868968, ack 1117, win 501, length 196
23:03:12.033683 IP lamp-ubuntu-s-1vcpu-1gb-tor1-01.ssh > 135-23-156-44.cpe.pppoe.ca.63022: Flags [P.], seq 1868968:1869164, ack 1117, win 501, length 196
23:03:12.033805 IP lamp-ubuntu-s-1vcpu-1gb-tor1-01.ssh > 135-23-156-44.cpe.pppoe.ca.63022: Flags [P.], seq 1869164:1869360, ack 1117, win 501, length 196
23:03:12.033927 IP lamp-ubuntu-s-1vcpu-1gb-tor1-01.ssh > 135-23-156-44.cpe.pppoe.ca.63022: Flags [P.], seq 1869360:1869556, ack 1117, win 501, length 196
23:03:12.034079 IP lamp-ubuntu-s-1vcpu-1gb-tor1-01.ssh > 135-23-156-44.cpe.pppoe.ca.63022: Flags [P.], seq 1869556:1869752, ack 1117, win 501, length 196
23:03:12.034204 IP lamp-ubuntu-s-1vcpu-1gb-tor1-01.ssh > 135-23-156-44.cpe.pppoe.ca.63022: Flags [P.], seq 1869752:1869948, ack 1117, win 501, length 196
23:03:12.034249 IP 135-23-156-44.cpe.pppoe.ca.63022 > lamp-ubuntu-s-1vcpu-1gb-tor1-01.ssh: Flags [.], ack 1863088, win 1023, length 0
23:03:12.034412 IP lamp-ubuntu-s-1vcpu-1gb-tor1-01.ssh > 135-23-156-44.cpe.pppoe.ca.63022: Flags [P.], seq 1869948:1870272, ack 1117, win 501, length 324
23:03:12.034536 IP lamp-ubuntu-s-1vcpu-1gb-tor1-01.ssh > 135-23-156-44.cpe.pppoe.ca.63022: Flags [P.], seq 1870272:1870468, ack 1117, win 501, length 196
23:03:12.034655 IP lamp-ubuntu-s-1vcpu-1gb-tor1-01.ssh > 135-23-156-44.cpe.pppoe.ca.63022: Flags [P.], seq 1870468:1870664, ack 1117, win 501, length 196
23:03:12.034774 IP lamp-ubuntu-s-1vcpu-1gb-tor1-01.ssh > 135-23-156-44.cpe.pppoe.ca.63022: Flags [P.], seq 1870664:1870860, ack 1117, win 501, length 196
23:03:12.034894 IP lamp-ubuntu-s-1vcpu-1gb-tor1-01.ssh > 135-23-156-44.cpe.pppoe.ca.63022: Flags [P.], seq 1870860:1871056, ack 1117, win 501, length 196
23:03:12.035105 IP lamp-ubuntu-s-1vcpu-1gb-tor1-01.ssh > 135-23-156-44.cpe.pppoe.ca.63022: Flags [P.], seq 1871056:1871252, ack 1117, win 501, length 196
23:03:12.035244 IP lamp-ubuntu-s-1vcpu-1gb-tor1-01.ssh > 135-23-156-44.cpe.pppoe.ca.63022: Flags [P.], seq 1871252:1871448, ack 1117, win 501, length 196
23:03:12.035367 IP lamp-ubuntu-s-1vcpu-1gb-tor1-01.ssh > 135-23-156-44.cpe.pppoe.ca.63022: Flags [P.], seq 1871448:1871644, ack 1117, win 501, length 196
23:03:12.035496 IP lamp-ubuntu-s-1vcpu-1gb-tor1-01.ssh > 135-23-156-44.cpe.pppoe.ca.63022: Flags [P.], seq 1871644:1871840, ack 1117, win 501, length 196
23:03:12.035617 IP lamp-ubuntu-s-1vcpu-1gb-tor1-01.ssh > 135-23-156-44.cpe.pppoe.ca.63022: Flags [P.], seq 1871840:1872036, ack 1117, win 501, length 196
23:03:12.035741 IP lamp-ubuntu-s-1vcpu-1gb-tor1-01.ssh > 135-23-156-44.cpe.pppoe.ca.63022: Flags [P.], seq 1872036:1872232, ack 1117, win 501, length 196
23:03:12.035873 IP lamp-ubuntu-s-1vcpu-1gb-tor1-01.ssh > 135-23-156-44.cpe.pppoe.ca.63022: Flags [P.], seq 1872232:1872428, ack 1117, win 501, length 196
23:03:12.035993 IP lamp-ubuntu-s-1vcpu-1gb-tor1-01.ssh > 135-23-156-44.cpe.pppoe.ca.63022: Flags [P.], seq 1872428:1872624, ack 1117, win 501, length 196
23:03:12.036123 IP lamp-ubuntu-s-1vcpu-1gb-tor1-01.ssh > 135-23-156-44.cpe.pppoe.ca.63022: Flags [P.], seq 1872624:1872820, ack 1117, win 501, length 196
23:03:12.036242 IP lamp-ubuntu-s-1vcpu-1gb-tor1-01.ssh > 135-23-156-44.cpe.pppoe.ca.63022: Flags [P.], seq 1872820:1873016, ack 1117, win 501, length 196
23:03:12.036365 IP lamp-ubuntu-s-1vcpu-1gb-tor1-01.ssh > 135-23-156-44.cpe.pppoe.ca.63022: Flags [P.], seq 1873016:1873212, ack 1117, win 501, length 196
23:03:12.036493 IP lamp-ubuntu-s-1vcpu-1gb-tor1-01.ssh > 135-23-156-44.cpe.pppoe.ca.63022: Flags [P.], seq 1873212:1873408, ack 1117, win 501, length 196
23:03:12.036613 IP lamp-ubuntu-s-1vcpu-1gb-tor1-01.ssh > 135-23-156-44.cpe.pppoe.ca.63022: Flags [P.], seq 1873408:1873604, ack 1117, win 501, length 196
23:03:12.036737 IP lamp-ubuntu-s-1vcpu-1gb-tor1-01.ssh > 135-23-156-44.cpe.pppoe.ca.63022: Flags [P.], seq 1873604:1873800, ack 1117, win 501, length 196
23:03:12.036855 IP lamp-ubuntu-s-1vcpu-1gb-tor1-01.ssh > 135-23-156-44.cpe.pppoe.ca.63022: Flags [P.], seq 1873800:1873996, ack 1117, win 501, length 196
23:03:12.036972 IP lamp-ubuntu-s-1vcpu-1gb-tor1-01.ssh > 135-23-156-44.cpe.pppoe.ca.63022: Flags [P.], seq 1873996:1874192, ack 1117, win 501, length 196
23:03:12.037094 IP lamp-ubuntu-s-1vcpu-1gb-tor1-01.ssh > 135-23-156-44.cpe.pppoe.ca.63022: Flags [P.], seq 1874192:1874388, ack 1117, win 501, length 196
23:03:12.037226 IP lamp-ubuntu-s-1vcpu-1gb-tor1-01.ssh > 135-23-156-44.cpe.pppoe.ca.63022: Flags [P.], seq 1874388:1874584, ack 1117, win 501, length 196
23:03:12.037349 IP lamp-ubuntu-s-1vcpu-1gb-tor1-01.ssh > 135-23-156-44.cpe.pppoe.ca.63022: Flags [P.], seq 1874584:1874780, ack 1117, win 501, length 196
23:03:12.037471 IP lamp-ubuntu-s-1vcpu-1gb-tor1-01.ssh > 135-23-156-44.cpe.pppoe.ca.63022: Flags [P.], seq 1874780:1874976, ack 1117, win 501, length 196
23:03:12.037633 IP lamp-ubuntu-s-1vcpu-1gb-tor1-01.ssh > 135-23-156-44.cpe.pppoe.ca.63022: Flags [P.], seq 1874976:1875172, ack 1117, win 501, length 196
23:03:12.037770 IP lamp-ubuntu-s-1vcpu-1gb-tor1-01.ssh > 135-23-156-44.cpe.pppoe.ca.63022: Flags [P.], seq 1875172:1875368, ack 1117, win 501, length 196
23:03:12.037893 IP lamp-ubuntu-s-1vcpu-1gb-tor1-01.ssh > 135-23-156-44.cpe.pppoe.ca.63022: Flags [P.], seq 1875368:1875564, ack 1117, win 501, length 196
23:03:12.038012 IP lamp-ubuntu-s-1vcpu-1gb-tor1-01.ssh > 135-23-156-44.cpe.pppoe.ca.63022: Flags [P.], seq 1875564:1875760, ack 1117, win 501, length 196
23:03:12.038155 IP lamp-ubuntu-s-1vcpu-1gb-tor1-01.ssh > 135-23-156-44.cpe.pppoe.ca.63022: Flags [P.], seq 1875760:1875956, ack 1117, win 501, length 196
23:03:12.038311 IP lamp-ubuntu-s-1vcpu-1gb-tor1-01.ssh > 135-23-156-44.cpe.pppoe.ca.63022: Flags [P.], seq 1875956:1876152, ack 1117, win 501, length 196
23:03:12.038434 IP lamp-ubuntu-s-1vcpu-1gb-tor1-01.ssh > 135-23-156-44.cpe.pppoe.ca.63022: Flags [P.], seq 1876152:1876348, ack 1117, win 501, length 196
23:03:12.038555 IP lamp-ubuntu-s-1vcpu-1gb-tor1-01.ssh > 135-23-156-44.cpe.pppoe.ca.63022: Flags [P.], seq 1876348:1876544, ack 1117, win 501, length 196
23:03:12.038676 IP lamp-ubuntu-s-1vcpu-1gb-tor1-01.ssh > 135-23-156-44.cpe.pppoe.ca.63022: Flags [P.], seq 1876544:1876740, ack 1117, win 501, length 196
23:03:12.038795 IP lamp-ubuntu-s-1vcpu-1gb-tor1-01.ssh > 135-23-156-44.cpe.pppoe.ca.63022: Flags [P.], seq 1876740:1876936, ack 1117, win 501, length 196
23:03:12.038918 IP lamp-ubuntu-s-1vcpu-1gb-tor1-01.ssh > 135-23-156-44.cpe.pppoe.ca.63022: Flags [P.], seq 1876936:1877132, ack 1117, win 501, length 196
23:03:12.039037 IP lamp-ubuntu-s-1vcpu-1gb-tor1-01.ssh > 135-23-156-44.cpe.pppoe.ca.63022: Flags [P.], seq 1877132:1877328, ack 1117, win 501, length 196
23:03:12.039163 IP lamp-ubuntu-s-1vcpu-1gb-tor1-01.ssh > 135-23-156-44.cpe.pppoe.ca.63022: Flags [P.], seq 1877328:1877524, ack 1117, win 501, length 196
23:03:12.039399 IP lamp-ubuntu-s-1vcpu-1gb-tor1-01.ssh > 135-23-156-44.cpe.pppoe.ca.63022: Flags [P.], seq 1877524:1877720, ack 1117, win 501, length 196
23:03:12.039609 IP lamp-ubuntu-s-1vcpu-1gb-tor1-01.ssh > 135-23-156-44.cpe.pppoe.ca.63022: Flags [P.], seq 1877720:1877916, ack 1117, win 501, length 196
23:03:12.039747 IP lamp-ubuntu-s-1vcpu-1gb-tor1-01.ssh > 135-23-156-44.cpe.pppoe.ca.63022: Flags [P.], seq 1877916:1878112, ack 1117, win 501, length 196
23:03:12.039878 IP lamp-ubuntu-s-1vcpu-1gb-tor1-01.ssh > 135-23-156-44.cpe.pppoe.ca.63022: Flags [P.], seq 1878112:1878308, ack 1117, win 501, length 196
23:03:12.039998 IP lamp-ubuntu-s-1vcpu-1gb-tor1-01.ssh > 135-23-156-44.cpe.pppoe.ca.63022: Flags [P.], seq 1878308:1878504, ack 1117, win 501, length 196
23:03:12.040122 IP lamp-ubuntu-s-1vcpu-1gb-tor1-01.ssh > 135-23-156-44.cpe.pppoe.ca.63022: Flags [P.], seq 1878504:1878700, ack 1117, win 501, length 196
23:03:12.040308 IP lamp-ubuntu-s-1vcpu-1gb-tor1-01.ssh > 135-23-156-44.cpe.pppoe.ca.63022: Flags [P.], seq 1878700:1878896, ack 1117, win 501, length 196
23:03:12.040448 IP lamp-ubuntu-s-1vcpu-1gb-tor1-01.ssh > 135-23-156-44.cpe.pppoe.ca.63022: Flags [P.], seq 1878896:1879092, ack 1117, win 501, length 196
23:03:12.040575 IP lamp-ubuntu-s-1vcpu-1gb-tor1-01.ssh > 135-23-156-44.cpe.pppoe.ca.63022: Flags [P.], seq 1879092:1879288, ack 1117, win 501, length 196
23:03:12.040646 IP 135-23-156-44.cpe.pppoe.ca.63022 > lamp-ubuntu-s-1vcpu-1gb-tor1-01.ssh: Flags [.], ack 1872624, win 1025, length 0
23:03:12.040805 IP lamp-ubuntu-s-1vcpu-1gb-tor1-01.ssh > 135-23-156-44.cpe.pppoe.ca.63022: Flags [P.], seq 1879288:1879612, ack 1117, win 501, length 324
23:03:12.040942 IP lamp-ubuntu-s-1vcpu-1gb-tor1-01.ssh > 135-23-156-44.cpe.pppoe.ca.63022: Flags [P.], seq 1879612:1879808, ack 1117, win 501, length 196
23:03:12.041102 IP lamp-ubuntu-s-1vcpu-1gb-tor1-01.ssh > 135-23-156-44.cpe.pppoe.ca.63022: Flags [P.], seq 1879808:1880004, ack 1117, win 501, length 196
23:03:12.041375 IP lamp-ubuntu-s-1vcpu-1gb-tor1-01.ssh > 135-23-156-44.cpe.pppoe.ca.63022: Flags [P.], seq 1880004:1880200, ack 1117, win 501, length 196
23:03:12.041613 IP 135-23-156-44.cpe.pppoe.ca.63022 > lamp-ubuntu-s-1vcpu-1gb-tor1-01.ssh: Flags [.], ack 1873016, win 1023, length 0
23:03:12.041702 IP 135-23-156-44.cpe.pppoe.ca.63022 > lamp-ubuntu-s-1vcpu-1gb-tor1-01.ssh: Flags [.], ack 1874192, win 1026, length 0
23:03:12.041738 IP lamp-ubuntu-s-1vcpu-1gb-tor1-01.ssh > 135-23-156-44.cpe.pppoe.ca.63022: Flags [P.], seq 1880200:1880396, ack 1117, win 501, length 196
23:03:12.041919 IP lamp-ubuntu-s-1vcpu-1gb-tor1-01.ssh > 135-23-156-44.cpe.pppoe.ca.63022: Flags [P.], seq 1880396:1880856, ack 1117, win 501, length 460
23:03:12.042111 IP 135-23-156-44.cpe.pppoe.ca.63022 > lamp-ubuntu-s-1vcpu-1gb-tor1-01.ssh: Flags [.], ack 1874584, win 1025, length 0
23:03:12.042163 IP lamp-ubuntu-s-1vcpu-1gb-tor1-01.ssh > 135-23-156-44.cpe.pppoe.ca.63022: Flags [P.], seq 1880856:1881052, ack 1117, win 501, length 196
23:03:12.042234 IP 135-23-156-44.cpe.pppoe.ca.63022 > lamp-ubuntu-s-1vcpu-1gb-tor1-01.ssh: Flags [.], ack 1874976, win 1023, length 0
23:03:12.042377 IP lamp-ubuntu-s-1vcpu-1gb-tor1-01.ssh > 135-23-156-44.cpe.pppoe.ca.63022: Flags [P.], seq 1881052:1881512, ack 1117, win 501, length 460
23:03:12.042510 IP lamp-ubuntu-s-1vcpu-1gb-tor1-01.ssh > 135-23-156-44.cpe.pppoe.ca.63022: Flags [P.], seq 1881512:1881708, ack 1117, win 501, length 196
23:03:12.042634 IP lamp-ubuntu-s-1vcpu-1gb-tor1-01.ssh > 135-23-156-44.cpe.pppoe.ca.63022: Flags [P.], seq 1881708:1881904, ack 1117, win 501, length 196
23:03:12.042727 IP 135-23-156-44.cpe.pppoe.ca.63022 > lamp-ubuntu-s-1vcpu-1gb-tor1-01.ssh: Flags [.], ack 1875368, win 1021, length 0
23:03:12.042828 IP lamp-ubuntu-s-1vcpu-1gb-tor1-01.ssh > 135-23-156-44.cpe.pppoe.ca.63022: Flags [P.], seq 1881904:1882228, ack 1117, win 501, length 324
23:03:12.042890 IP 135-23-156-44.cpe.pppoe.ca.63022 > lamp-ubuntu-s-1vcpu-1gb-tor1-01.ssh: Flags [P.], seq 1117:1153, ack 1875564, win 1021, length 36
^C
10156 packets captured
10159 packets received by filter
0 packets dropped by kernel

10)
root@lamp-ubuntu-s-1vcpu-1gb-tor1-01:~# tcpdump -i eth0 port 22
23:03:37.199308 IP lamp-ubuntu-s-1vcpu-1gb-tor1-01.ssh > 135-23-156-44.cpe.pppoe.ca.63022: Flags [P.], seq 1194716:1194904, ack 685, win 501, length 188
23:03:37.199405 IP lamp-ubuntu-s-1vcpu-1gb-tor1-01.ssh > 135-23-156-44.cpe.pppoe.ca.63022: Flags [P.], seq 1194904:1195092, ack 685, win 501, length 188
23:03:37.199495 IP lamp-ubuntu-s-1vcpu-1gb-tor1-01.ssh > 135-23-156-44.cpe.pppoe.ca.63022: Flags [P.], seq 1195092:1195280, ack 685, win 501, length 188
23:03:37.199590 IP lamp-ubuntu-s-1vcpu-1gb-tor1-01.ssh > 135-23-156-44.cpe.pppoe.ca.63022: Flags [P.], seq 1195280:1195468, ack 685, win 501, length 188
23:03:37.199679 IP lamp-ubuntu-s-1vcpu-1gb-tor1-01.ssh > 135-23-156-44.cpe.pppoe.ca.63022: Flags [P.], seq 1195468:1195656, ack 685, win 501, length 188
23:03:37.199775 IP lamp-ubuntu-s-1vcpu-1gb-tor1-01.ssh > 135-23-156-44.cpe.pppoe.ca.63022: Flags [P.], seq 1195656:1195844, ack 685, win 501, length 188
23:03:37.199863 IP lamp-ubuntu-s-1vcpu-1gb-tor1-01.ssh > 135-23-156-44.cpe.pppoe.ca.63022: Flags [P.], seq 1195844:1196032, ack 685, win 501, length 188
23:03:37.199951 IP lamp-ubuntu-s-1vcpu-1gb-tor1-01.ssh > 135-23-156-44.cpe.pppoe.ca.63022: Flags [P.], seq 1196032:1196220, ack 685, win 501, length 188
23:03:37.200046 IP lamp-ubuntu-s-1vcpu-1gb-tor1-01.ssh > 135-23-156-44.cpe.pppoe.ca.63022: Flags [P.], seq 1196220:1196408, ack 685, win 501, length 188
23:03:37.200135 IP lamp-ubuntu-s-1vcpu-1gb-tor1-01.ssh > 135-23-156-44.cpe.pppoe.ca.63022: Flags [P.], seq 1196408:1196596, ack 685, win 501, length 188
23:03:37.200214 IP 135-23-156-44.cpe.pppoe.ca.63022 > lamp-ubuntu-s-1vcpu-1gb-tor1-01.ssh: Flags [.], ack 1188324, win 1026, length 0
23:03:37.200301 IP 135-23-156-44.cpe.pppoe.ca.63022 > lamp-ubuntu-s-1vcpu-1gb-tor1-01.ssh: Flags [.], ack 1188700, win 1025, length 0
23:03:37.200379 IP lamp-ubuntu-s-1vcpu-1gb-tor1-01.ssh > 135-23-156-44.cpe.pppoe.ca.63022: Flags [P.], seq 1196596:1197056, ack 685, win 501, length 460
23:03:37.200486 IP lamp-ubuntu-s-1vcpu-1gb-tor1-01.ssh > 135-23-156-44.cpe.pppoe.ca.63022: Flags [P.], seq 1197056:1197244, ack 685, win 501, length 188
23:03:37.200581 IP lamp-ubuntu-s-1vcpu-1gb-tor1-01.ssh > 135-23-156-44.cpe.pppoe.ca.63022: Flags [P.], seq 1197244:1197432, ack 685, win 501, length 188
23:03:37.200676 IP lamp-ubuntu-s-1vcpu-1gb-tor1-01.ssh > 135-23-156-44.cpe.pppoe.ca.63022: Flags [P.], seq 1197432:1197620, ack 685, win 501, length 188
23:03:37.200766 IP lamp-ubuntu-s-1vcpu-1gb-tor1-01.ssh > 135-23-156-44.cpe.pppoe.ca.63022: Flags [P.], seq 1197620:1197808, ack 685, win 501, length 188
23:03:37.200860 IP lamp-ubuntu-s-1vcpu-1gb-tor1-01.ssh > 135-23-156-44.cpe.pppoe.ca.63022: Flags [P.], seq 1197808:1197996, ack 685, win 501, length 188
23:03:37.200949 IP lamp-ubuntu-s-1vcpu-1gb-tor1-01.ssh > 135-23-156-44.cpe.pppoe.ca.63022: Flags [P.], seq 1197996:1198184, ack 685, win 501, length 188
23:03:37.201050 IP lamp-ubuntu-s-1vcpu-1gb-tor1-01.ssh > 135-23-156-44.cpe.pppoe.ca.63022: Flags [P.], seq 1198184:1198372, ack 685, win 501, length 188
23:03:37.201140 IP lamp-ubuntu-s-1vcpu-1gb-tor1-01.ssh > 135-23-156-44.cpe.pppoe.ca.63022: Flags [P.], seq 1198372:1198560, ack 685, win 501, length 188
23:03:37.201229 IP lamp-ubuntu-s-1vcpu-1gb-tor1-01.ssh > 135-23-156-44.cpe.pppoe.ca.63022: Flags [P.], seq 1198560:1198748, ack 685, win 501, length 188
23:03:37.201327 IP lamp-ubuntu-s-1vcpu-1gb-tor1-01.ssh > 135-23-156-44.cpe.pppoe.ca.63022: Flags [P.], seq 1198748:1198936, ack 685, win 501, length 188
23:03:37.201345 IP 135-23-156-44.cpe.pppoe.ca.63022 > lamp-ubuntu-s-1vcpu-1gb-tor1-01.ssh: Flags [.], ack 1189076, win 1023, length 0
23:03:37.201345 IP 135-23-156-44.cpe.pppoe.ca.63022 > lamp-ubuntu-s-1vcpu-1gb-tor1-01.ssh: Flags [.], ack 1189640, win 1021, length 0
23:03:37.201393 IP 135-23-156-44.cpe.pppoe.ca.63022 > lamp-ubuntu-s-1vcpu-1gb-tor1-01.ssh: Flags [.], ack 1189828, win 1026, length 0
23:03:37.201524 IP 135-23-156-44.cpe.pppoe.ca.63022 > lamp-ubuntu-s-1vcpu-1gb-tor1-01.ssh: Flags [.], ack 1190204, win 1025, length 0
23:03:37.201607 IP lamp-ubuntu-s-1vcpu-1gb-tor1-01.ssh > 135-23-156-44.cpe.pppoe.ca.63022: Flags [P.], seq 1198936:1199532, ack 685, win 501, length 596
23:03:37.201699 IP 135-23-156-44.cpe.pppoe.ca.63022 > lamp-ubuntu-s-1vcpu-1gb-tor1-01.ssh: Flags [.], ack 1190580, win 1023, length 0
23:03:37.201751 IP lamp-ubuntu-s-1vcpu-1gb-tor1-01.ssh > 135-23-156-44.cpe.pppoe.ca.63022: Flags [P.], seq 1199532:1199704, ack 685, win 501, length 172
23:03:37.201833 IP lamp-ubuntu-s-1vcpu-1gb-tor1-01.ssh > 135-23-156-44.cpe.pppoe.ca.63022: Flags [P.], seq 1199704:1199892, ack 685, win 501, length 188
23:03:37.201920 IP lamp-ubuntu-s-1vcpu-1gb-tor1-01.ssh > 135-23-156-44.cpe.pppoe.ca.63022: Flags [P.], seq 1199892:1200216, ack 685, win 501, length 324
23:03:37.202005 IP lamp-ubuntu-s-1vcpu-1gb-tor1-01.ssh > 135-23-156-44.cpe.pppoe.ca.63022: Flags [P.], seq 1200216:1200404, ack 685, win 501, length 188
23:03:37.202191 IP 135-23-156-44.cpe.pppoe.ca.63022 > lamp-ubuntu-s-1vcpu-1gb-tor1-01.ssh: Flags [.], ack 1191332, win 1026, length 0
23:03:37.202191 IP 135-23-156-44.cpe.pppoe.ca.63022 > lamp-ubuntu-s-1vcpu-1gb-tor1-01.ssh: Flags [.], ack 1191708, win 1025, length 0
23:03:37.202221 IP lamp-ubuntu-s-1vcpu-1gb-tor1-01.ssh > 135-23-156-44.cpe.pppoe.ca.63022: Flags [P.], seq 1200404:1200592, ack 685, win 501, length 188
23:03:37.202424 IP lamp-ubuntu-s-1vcpu-1gb-tor1-01.ssh > 135-23-156-44.cpe.pppoe.ca.63022: Flags [P.], seq 1200592:1200780, ack 685, win 501, length 188
23:03:37.202470 IP lamp-ubuntu-s-1vcpu-1gb-tor1-01.ssh > 135-23-156-44.cpe.pppoe.ca.63022: Flags [P.], seq 1200780:1201240, ack 685, win 501, length 460
23:03:37.202593 IP lamp-ubuntu-s-1vcpu-1gb-tor1-01.ssh > 135-23-156-44.cpe.pppoe.ca.63022: Flags [P.], seq 1201240:1201588, ack 685, win 501, length 348
23:03:37.202689 IP lamp-ubuntu-s-1vcpu-1gb-tor1-01.ssh > 135-23-156-44.cpe.pppoe.ca.63022: Flags [P.], seq 1201588:1201776, ack 685, win 501, length 188
23:03:37.202810 IP lamp-ubuntu-s-1vcpu-1gb-tor1-01.ssh > 135-23-156-44.cpe.pppoe.ca.63022: Flags [P.], seq 1201776:1201964, ack 685, win 501, length 188
23:03:37.202996 IP lamp-ubuntu-s-1vcpu-1gb-tor1-01.ssh > 135-23-156-44.cpe.pppoe.ca.63022: Flags [P.], seq 1201964:1202152, ack 685, win 501, length 188
23:03:37.203198 IP lamp-ubuntu-s-1vcpu-1gb-tor1-01.ssh > 135-23-156-44.cpe.pppoe.ca.63022: Flags [P.], seq 1202152:1202340, ack 685, win 501, length 188
23:03:37.203313 IP lamp-ubuntu-s-1vcpu-1gb-tor1-01.ssh > 135-23-156-44.cpe.pppoe.ca.63022: Flags [P.], seq 1202340:1202528, ack 685, win 501, length 188
23:03:37.203460 IP lamp-ubuntu-s-1vcpu-1gb-tor1-01.ssh > 135-23-156-44.cpe.pppoe.ca.63022: Flags [P.], seq 1202528:1202716, ack 685, win 501, length 188
23:03:37.203609 IP lamp-ubuntu-s-1vcpu-1gb-tor1-01.ssh > 135-23-156-44.cpe.pppoe.ca.63022: Flags [P.], seq 1202716:1202904, ack 685, win 501, length 188
23:03:37.203714 IP lamp-ubuntu-s-1vcpu-1gb-tor1-01.ssh > 135-23-156-44.cpe.pppoe.ca.63022: Flags [P.], seq 1202904:1203092, ack 685, win 501, length 188
23:03:37.203811 IP lamp-ubuntu-s-1vcpu-1gb-tor1-01.ssh > 135-23-156-44.cpe.pppoe.ca.63022: Flags [P.], seq 1203092:1203280, ack 685, win 501, length 188
23:03:37.203908 IP lamp-ubuntu-s-1vcpu-1gb-tor1-01.ssh > 135-23-156-44.cpe.pppoe.ca.63022: Flags [P.], seq 1203280:1203468, ack 685, win 501, length 188
23:03:37.203997 IP lamp-ubuntu-s-1vcpu-1gb-tor1-01.ssh > 135-23-156-44.cpe.pppoe.ca.63022: Flags [P.], seq 1203468:1203656, ack 685, win 501, length 188
23:03:37.204085 IP lamp-ubuntu-s-1vcpu-1gb-tor1-01.ssh > 135-23-156-44.cpe.pppoe.ca.63022: Flags [P.], seq 1203656:1203844, ack 685, win 501, length 188
23:03:37.204175 IP lamp-ubuntu-s-1vcpu-1gb-tor1-01.ssh > 135-23-156-44.cpe.pppoe.ca.63022: Flags [P.], seq 1203844:1204032, ack 685, win 501, length 188
23:03:37.204270 IP lamp-ubuntu-s-1vcpu-1gb-tor1-01.ssh > 135-23-156-44.cpe.pppoe.ca.63022: Flags [P.], seq 1204032:1204220, ack 685, win 501, length 188
23:03:37.204362 IP lamp-ubuntu-s-1vcpu-1gb-tor1-01.ssh > 135-23-156-44.cpe.pppoe.ca.63022: Flags [P.], seq 1204220:1204408, ack 685, win 501, length 188
23:03:37.204450 IP lamp-ubuntu-s-1vcpu-1gb-tor1-01.ssh > 135-23-156-44.cpe.pppoe.ca.63022: Flags [P.], seq 1204408:1204596, ack 685, win 501, length 188
23:03:37.204544 IP lamp-ubuntu-s-1vcpu-1gb-tor1-01.ssh > 135-23-156-44.cpe.pppoe.ca.63022: Flags [P.], seq 1204596:1204784, ack 685, win 501, length 188
23:03:37.204631 IP lamp-ubuntu-s-1vcpu-1gb-tor1-01.ssh > 135-23-156-44.cpe.pppoe.ca.63022: Flags [P.], seq 1204784:1204972, ack 685, win 501, length 188
23:03:37.204719 IP lamp-ubuntu-s-1vcpu-1gb-tor1-01.ssh > 135-23-156-44.cpe.pppoe.ca.63022: Flags [P.], seq 1204972:1205160, ack 685, win 501, length 188
23:03:37.204813 IP lamp-ubuntu-s-1vcpu-1gb-tor1-01.ssh > 135-23-156-44.cpe.pppoe.ca.63022: Flags [P.], seq 1205160:1205348, ack 685, win 501, length 188
23:03:37.204900 IP lamp-ubuntu-s-1vcpu-1gb-tor1-01.ssh > 135-23-156-44.cpe.pppoe.ca.63022: Flags [P.], seq 1205348:1205536, ack 685, win 501, length 188
23:03:37.204994 IP lamp-ubuntu-s-1vcpu-1gb-tor1-01.ssh > 135-23-156-44.cpe.pppoe.ca.63022: Flags [P.], seq 1205536:1205724, ack 685, win 501, length 188
23:03:37.205082 IP lamp-ubuntu-s-1vcpu-1gb-tor1-01.ssh > 135-23-156-44.cpe.pppoe.ca.63022: Flags [P.], seq 1205724:1205912, ack 685, win 501, length 188
23:03:37.205169 IP lamp-ubuntu-s-1vcpu-1gb-tor1-01.ssh > 135-23-156-44.cpe.pppoe.ca.63022: Flags [P.], seq 1205912:1206100, ack 685, win 501, length 188
23:03:37.205264 IP lamp-ubuntu-s-1vcpu-1gb-tor1-01.ssh > 135-23-156-44.cpe.pppoe.ca.63022: Flags [P.], seq 1206100:1206288, ack 685, win 501, length 188
23:03:37.205356 IP lamp-ubuntu-s-1vcpu-1gb-tor1-01.ssh > 135-23-156-44.cpe.pppoe.ca.63022: Flags [P.], seq 1206288:1206476, ack 685, win 501, length 188
23:03:37.205446 IP lamp-ubuntu-s-1vcpu-1gb-tor1-01.ssh > 135-23-156-44.cpe.pppoe.ca.63022: Flags [P.], seq 1206476:1206664, ack 685, win 501, length 188
23:03:37.205559 IP lamp-ubuntu-s-1vcpu-1gb-tor1-01.ssh > 135-23-156-44.cpe.pppoe.ca.63022: Flags [P.], seq 1206664:1206852, ack 685, win 501, length 188
23:03:37.205655 IP lamp-ubuntu-s-1vcpu-1gb-tor1-01.ssh > 135-23-156-44.cpe.pppoe.ca.63022: Flags [P.], seq 1206852:1207040, ack 685, win 501, length 188
23:03:37.205743 IP lamp-ubuntu-s-1vcpu-1gb-tor1-01.ssh > 135-23-156-44.cpe.pppoe.ca.63022: Flags [P.], seq 1207040:1207228, ack 685, win 501, length 188
23:03:37.205832 IP lamp-ubuntu-s-1vcpu-1gb-tor1-01.ssh > 135-23-156-44.cpe.pppoe.ca.63022: Flags [P.], seq 1207228:1207416, ack 685, win 501, length 188
23:03:37.205925 IP lamp-ubuntu-s-1vcpu-1gb-tor1-01.ssh > 135-23-156-44.cpe.pppoe.ca.63022: Flags [P.], seq 1207416:1207604, ack 685, win 501, length 188
23:03:37.206013 IP lamp-ubuntu-s-1vcpu-1gb-tor1-01.ssh > 135-23-156-44.cpe.pppoe.ca.63022: Flags [P.], seq 1207604:1207792, ack 685, win 501, length 188
23:03:37.206119 IP lamp-ubuntu-s-1vcpu-1gb-tor1-01.ssh > 135-23-156-44.cpe.pppoe.ca.63022: Flags [P.], seq 1207792:1207980, ack 685, win 501, length 188
23:03:37.206212 IP lamp-ubuntu-s-1vcpu-1gb-tor1-01.ssh > 135-23-156-44.cpe.pppoe.ca.63022: Flags [P.], seq 1207980:1208168, ack 685, win 501, length 188
23:03:37.206335 IP 135-23-156-44.cpe.pppoe.ca.63022 > lamp-ubuntu-s-1vcpu-1gb-tor1-01.ssh: Flags [.], ack 1192460, win 1022, length 0
23:03:37.206335 IP 135-23-156-44.cpe.pppoe.ca.63022 > lamp-ubuntu-s-1vcpu-1gb-tor1-01.ssh: Flags [.], ack 1193588, win 1023, length 0
23:03:37.206335 IP 135-23-156-44.cpe.pppoe.ca.63022 > lamp-ubuntu-s-1vcpu-1gb-tor1-01.ssh: Flags [.], ack 1196220, win 1025, length 0
23:03:37.206368 IP lamp-ubuntu-s-1vcpu-1gb-tor1-01.ssh > 135-23-156-44.cpe.pppoe.ca.63022: Flags [P.], seq 1208168:1208356, ack 685, win 501, length 188
23:03:37.206411 IP 135-23-156-44.cpe.pppoe.ca.63022 > lamp-ubuntu-s-1vcpu-1gb-tor1-01.ssh: Flags [.], ack 1198748, win 1022, length 0
23:03:37.206545 IP lamp-ubuntu-s-1vcpu-1gb-tor1-01.ssh > 135-23-156-44.cpe.pppoe.ca.63022: Flags [P.], seq 1208356:1209088, ack 685, win 501, length 732
23:03:37.206640 IP lamp-ubuntu-s-1vcpu-1gb-tor1-01.ssh > 135-23-156-44.cpe.pppoe.ca.63022: Flags [P.], seq 1209088:1209276, ack 685, win 501, length 188
23:03:37.206717 IP 135-23-156-44.cpe.pppoe.ca.63022 > lamp-ubuntu-s-1vcpu-1gb-tor1-01.ssh: Flags [.], ack 1199892, win 1025, length 0
23:03:37.206757 IP lamp-ubuntu-s-1vcpu-1gb-tor1-01.ssh > 135-23-156-44.cpe.pppoe.ca.63022: Flags [P.], seq 1209276:1209464, ack 685, win 501, length 188
23:03:37.206866 IP lamp-ubuntu-s-1vcpu-1gb-tor1-01.ssh > 135-23-156-44.cpe.pppoe.ca.63022: Flags [P.], seq 1209464:1209788, ack 685, win 501, length 324
23:03:37.206956 IP lamp-ubuntu-s-1vcpu-1gb-tor1-01.ssh > 135-23-156-44.cpe.pppoe.ca.63022: Flags [P.], seq 1209788:1209976, ack 685, win 501, length 188
23:03:37.207122 IP lamp-ubuntu-s-1vcpu-1gb-tor1-01.ssh > 135-23-156-44.cpe.pppoe.ca.63022: Flags [P.], seq 1209976:1210164, ack 685, win 501, length 188
23:03:37.207261 IP 135-23-156-44.cpe.pppoe.ca.63022 > lamp-ubuntu-s-1vcpu-1gb-tor1-01.ssh: Flags [.], ack 1201588, win 1026, length 0
23:03:37.207346 IP lamp-ubuntu-s-1vcpu-1gb-tor1-01.ssh > 135-23-156-44.cpe.pppoe.ca.63022: Flags [P.], seq 1210164:1210352, ack 685, win 501, length 188
23:03:37.207516 IP lamp-ubuntu-s-1vcpu-1gb-tor1-01.ssh > 135-23-156-44.cpe.pppoe.ca.63022: Flags [P.], seq 1210352:1210676, ack 685, win 501, length 324
23:03:37.207574 IP 135-23-156-44.cpe.pppoe.ca.63022 > lamp-ubuntu-s-1vcpu-1gb-tor1-01.ssh: Flags [.], ack 1201964, win 1025, length 0
23:03:37.207703 IP lamp-ubuntu-s-1vcpu-1gb-tor1-01.ssh > 135-23-156-44.cpe.pppoe.ca.63022: Flags [P.], seq 1210676:1211000, ack 685, win 501, length 324
23:03:37.207864 IP lamp-ubuntu-s-1vcpu-1gb-tor1-01.ssh > 135-23-156-44.cpe.pppoe.ca.63022: Flags [P.], seq 1211000:1211188, ack 685, win 501, length 188
23:03:37.208021 IP lamp-ubuntu-s-1vcpu-1gb-tor1-01.ssh > 135-23-156-44.cpe.pppoe.ca.63022: Flags [P.], seq 1211188:1211376, ack 685, win 501, length 188
23:03:37.208123 IP lamp-ubuntu-s-1vcpu-1gb-tor1-01.ssh > 135-23-156-44.cpe.pppoe.ca.63022: Flags [P.], seq 1211376:1211564, ack 685, win 501, length 188
23:03:37.208215 IP lamp-ubuntu-s-1vcpu-1gb-tor1-01.ssh > 135-23-156-44.cpe.pppoe.ca.63022: Flags [P.], seq 1211564:1211752, ack 685, win 501, length 188
23:03:37.208316 IP lamp-ubuntu-s-1vcpu-1gb-tor1-01.ssh > 135-23-156-44.cpe.pppoe.ca.63022: Flags [P.], seq 1211752:1211940, ack 685, win 501, length 188
23:03:37.208406 IP lamp-ubuntu-s-1vcpu-1gb-tor1-01.ssh > 135-23-156-44.cpe.pppoe.ca.63022: Flags [P.], seq 1211940:1212128, ack 685, win 501, length 188
23:03:37.208500 IP 135-23-156-44.cpe.pppoe.ca.63022 > lamp-ubuntu-s-1vcpu-1gb-tor1-01.ssh: Flags [.], ack 1202340, win 1023, length 0
23:03:37.208500 IP 135-23-156-44.cpe.pppoe.ca.63022 > lamp-ubuntu-s-1vcpu-1gb-tor1-01.ssh: Flags [.], ack 1203092, win 1026, length 0
23:03:37.208571 IP lamp-ubuntu-s-1vcpu-1gb-tor1-01.ssh > 135-23-156-44.cpe.pppoe.ca.63022: Flags [P.], seq 1212128:1212316, ack 685, win 501, length 188
23:03:37.208590 IP 135-23-156-44.cpe.pppoe.ca.63022 > lamp-ubuntu-s-1vcpu-1gb-tor1-01.ssh: Flags [.], ack 1203468, win 1025, length 0
23:03:37.208656 IP lamp-ubuntu-s-1vcpu-1gb-tor1-01.ssh > 135-23-156-44.cpe.pppoe.ca.63022: Flags [P.], seq 1212316:1212624, ack 685, win 501, length 308
23:03:37.208779 IP lamp-ubuntu-s-1vcpu-1gb-tor1-01.ssh > 135-23-156-44.cpe.pppoe.ca.63022: Flags [P.], seq 1212624:1213108, ack 685, win 501, length 484
23:03:37.208870 IP lamp-ubuntu-s-1vcpu-1gb-tor1-01.ssh > 135-23-156-44.cpe.pppoe.ca.63022: Flags [P.], seq 1213108:1213296, ack 685, win 501, length 188
23:03:37.208958 IP lamp-ubuntu-s-1vcpu-1gb-tor1-01.ssh > 135-23-156-44.cpe.pppoe.ca.63022: Flags [P.], seq 1213296:1213484, ack 685, win 501, length 188
